:020000040800F2
:100000000000022079310008812F0008892F0008A4
:10001000912F0008992F0008A12F00080000000070
:10002000000000000000000000000000A92F0008F0
:10003000B72F000800000000C52F0008D32F0008CC
:10004000C9310008C9310008C9310008C9310008A8
:10005000C9310008C9310008C9310008C931000898
:10006000C9310008C9310008C9310008C931000888
:10007000C9310008C9310008C9310008C931000878
:10008000C9310008C9310008C9310008C931000868
:10009000C9310008C9310008C9310008C931000858
:1000A000C9310008C9310008C9310008C931000848
:1000B000C9310008C9310008C9310008C931000838
:1000C000C9310008C9310008C9310008C931000828
:1000D000C9310008C9310008C9310008C931000818
:1000E000C9310008C9310008C9310008C931000808
:1000F000C9310008C9310008C9310008C9310008F8
:10010000C9310008C9310008C9310008C9310008E7
:10011000C9310008C9310008C9310008C9310008D7
:10012000C9310008C9310008C9310008C9310008C7
:10013000C9310008C9310008C9310008C9310008B7
:10014000C9310008C9310008C9310008C9310008A7
:10015000C9310008C9310008C9310008C931000897
:10016000C9310008C9310008C9310008C931000887
:10017000C9310008C9310008C93100080000000079
:08018000C9310008C931000873
:1001900010B5054C237833B9044B13B10448AFF3C1
:1001A00000800123237010BD8C000020000000009F
:1001B0008C81000808B5034B1BB103490348AFF31A
:1001C000008008BD00000000900000208C81000825
:1001D00070B54FF0FF0C4CF4E06C1CEA11541DBFDD
:1001E0001CEA135594EA0C0F95EA0C0F00F0DEF8A8
:1001F0002C4481EA030621EA4C5123EA4C5350EA8D
:10020000013518BF52EA033541F4801143F48013DD
:1002100038D0A0FB02CE4FF00005E1FB02E506F06E
:100220000042E0FB03E54FF00006E1FB03569CF0C3
:10023000000F18BF4EF0010EA4F1FF04B6F5007FC9
:1002400064F5407404D25FEA4E0E6D4146EB06063B
:1002500042EAC62141EA55514FEAC52040EA5E50C4
:100260004FEACE2EB4F1FD0C88BFBCF5E06F1ED86E
:10027000BEF1004F08BF5FEA500E50F1000041EBA5
:10028000045170BD06F0004646EA010140EA020052
:1002900081EA0301B4EB5C04C2BFD4EB0C0541EA74
:1002A000045170BD41F480114FF0000E013C00F389
:1002B000AB8014F1360FDEBF002001F0004170BDAD
:1002C000C4F10004203C35DA0C341BDC04F11404C6
:1002D000C4F1200500FA05F320FA04F001FA05F252
:1002E00040EA020001F0004221F0004110EBD3701F
:1002F00021FA04F642EB06015EEA430E08BF20EA4B
:10030000D37070BDC4F10C04C4F1200500FA04F3ED
:1003100020FA05F001FA04F240EA020001F000417F
:1003200010EBD37041F100015EEA430E08BF20EAF2
:10033000D37070BDC4F1200500FA05F24EEA020E3A
:1003400020FA04F301FA05F243EA020321FA04F069
:1003500001F0004121FA04F220EA020000EBD37020
:100360005EEA430E08BF20EAD37070BD94F0000F20
:100370000FD101F00046400041EB010111F4801F54
:1003800008BF013CF7D041EA060195F0000F18BF05
:10039000704703F00046520043EB030313F4801F41
:1003A00008BF013DF7D043EA0603704794EA0C0FFB
:1003B0000CEA135518BF95EA0C0F0CD050EA410611
:1003C00018BF52EA4306D1D181EA030101F000418E
:1003D0004FF0000070BD50EA410606BF10461946B6
:1003E00052EA430619D094EA0C0F02D150EA0136C2
:1003F00013D195EA0C0F05D152EA03361CBF104603
:1004000019460AD181EA030101F0004141F0FE41A1
:1004100041F470014FF0000070BD41F0FE4141F425
:10042000780170BD81F0004102E000BF83F000431D
:1004300030B54FEA41044FEA430594EA050F08BF7F
:1004400090EA020F1FBF54EA000C55EA020C7FEA43
:10045000645C7FEA655C00F0E2804FEA5454D4EBC0
:100460005555B8BF6D420CDD2C4480EA020281EA8A
:10047000030382EA000083EA010180EA020281EAC2
:100480000303362D88BF30BD11F0004F4FEA013114
:100490004FF4801C4CEA113102D0404261EB410123
:1004A00013F0004F4FEA03334CEA133302D05242A9
:1004B00063EB430394EA050F00F0A780A4F1010465
:1004C000D5F1200E0DDB02FA0EFC22FA05F280189F
:1004D00041F1000103FA0EF2801843FA05F3594185
:1004E0000EE0A5F120050EF1200E012A03FA0EFC04
:1004F00028BF4CF0020C43FA05F3C01851EBE3712E
:1005000001F0004507D54FF0000EDCF1000C7EEB4A
:1005100000006EEB0101B1F5801F1BD3B1F5001F88
:100520000CD349085FEA30004FEA3C0C04F10104A7
:100530004FEA445212F5800F80F09A80BCF1004FD0
:1005400008BF5FEA500C50F1000041EB045141EA52
:10055000050130BD5FEA4C0C404141EB0101013C1B
:1005600028BFB1F5801FE9D291F0000F04BF01460A
:100570000020B1FA81F308BF2033A3F10B03B3F1DC
:1005800020020CDA0C3208DD02F1140CC2F10C026C
:1005900001FA0CF021FA02F10CE002F11402D8BFCA
:1005A000C2F1200C01FA02F120FA0CFCDCBF41EA96
:1005B0000C019040E41AA2BF01EB0451294330BD65
:1005C0006FEA04041F3C1CDA0C340EDC04F1140442
:1005D000C4F1200220FA04F001FA02F340EA030019
:1005E00021FA04F345EA030130BDC4F10C04C4F15F
:1005F000200220FA02F001FA04F340EA030029463F
:1006000030BD21FA04F0294630BD94F0000F83F488
:10061000801306BF81F480110134013D4EE77FEA6B
:10062000645C18BF7FEA655C29D094EA050F08BFB7
:1006300090EA020F05D054EA000C04BF1946104698
:1006400030BD91EA030F1EBF0021002030BD5FEADC
:10065000545C05D14000494128BF41F0004130BD04
:1006600014F580043CBF01F5801130BD01F0004558
:1006700045F0FE4141F470014FF0000030BD7FEACB
:10068000645C1ABF194610467FEA655C1CBF0B46C6
:10069000024650EA013406BF52EA033591EA030FDD
:1006A00041F4002130BD00BF90F0000F04BF0021D5
:1006B000704730B54FF4806404F132044FF0000508
:1006C0004FF0000150E700BF90F0000F04BF002181
:1006D000704730B54FF4806404F1320410F00045E7
:1006E00048BF40424FF000013EE700BF42004FEAE2
:1006F000E2014FEA31014FEA02701FBF12F07F435F
:1007000093F07F4F81F06051704732F07F4208BF15
:10071000704793F07F4F04BF41F40021704730B51C
:100720004FF4607401F0004521F000411CE700BF68
:1007300050EA010208BF704730B54FF000050AE0EB
:1007400050EA010208BF704730B511F0004502D5EC
:10075000404261EB41014FF4806404F132045FEAEE
:10076000915C3FF4D8AE4FF003025FEADC0C18BF97
:1007700003325FEADC0C18BF033202EBDC02C2F189
:10078000200300FA03FC20FA02F001FA03FE40EA1B
:100790000E0021FA02F11444BDE600BF4A0011D256
:1007A00012F5001211D20DD56FF47873B3EB6252CB
:1007B0000ED44FEAC12343F0004343EA505323FAD7
:1007C00002F070474FF00000704750EA013002D14C
:1007D0004FF0FF3070474FF00000704753B94AB9EF
:1007E000002908BF00281CBF4FF0FF314FF0FF3039
:1007F00000F088B9ADF1080C6DE904CE00F006F800
:10080000DDF804E0DDE9022304B070472DE9F0478C
:10081000089D0F4604468C46002B48D18A42164656
:1008200061D9B2FA82F34BB1C3F1200201FA03FCA1
:1008300020FA02F29E4042EA0C0C9C404FEA164E0F
:10084000B7B2BCFBFEF1220C0EFB11CC42EA0C420B
:1008500001FB07F0904209D9B21801F1FF3C80F08A
:10086000EE80904240F2EB8002393244121AA4B278
:10087000B2FBFEF00EFB102244EA024400FB07F735
:10088000A74209D9341900F1FF3280F0DA80A7427B
:1008900040F2D7803444023840EA0140E41B002192
:1008A0001DB1DC400023C5E90043BDE8F0878B4261
:1008B00006D90DB1C5E9000100210846BDE8F08761
:1008C000B3FA83F1002948D1BB4202D3824200F23D
:1008D0000781841A67EB030201209446002DE4D0BF
:1008E000C5E9004CE1E7002A00F09280B2FA82F3F9
:1008F000002B40F0A8808A1A4FEA164E1FFA86FC99
:100900000121200CB2FBFEF70EFB172240EA024247
:100910000CFB07F0904207D9B21807F1FF3802D25A
:10092000904200F2E2804746121AA4B2B2FBFEF0F7
:100930000EFB102244EA02440CFB00FCA44507D93C
:10094000341900F1FF3202D2A44500F2CB801046E8
:10095000A4EB0C0440EA0740A2E7C1F120068B405B
:1009600022FA06FC4CEA030C07FA01F420FA06F31B
:10097000F7404FEA1C49234300FA01F81FFA8CFEA6
:10098000B7FBF9F01C0C09FB107744EA074400FBA5
:100990000EF7A74202FA01F20AD91CEB040400F197
:1009A000FF3A80F09B80A74240F29880023864446E
:1009B000E41B9FB2B4FBF9F309FB134447EA044478
:1009C00003FB0EFEA64509D91CEB040403F1FF3717
:1009D00080F08280A6457FD9023B644443EA004010
:1009E000A4EB0E04A0FB02E7BC427346B94663D3F6
:1009F00060D05DB1B8EB030264EB090404FA06F6BB
:100A000022FA01F31E43CC40C5E9006400214CE703
:100A10006208480842EAC1710B0C43EA00438AB2FB
:100A200042EA0342B3FBF6F1E407B4463746B64662
:100A30001F23B0FBF6F0D21B41EA004161E761469B
:100A400014E7104628E7C3F1200120FA01F29E4086
:100A500027FA01F19F403A434FEA164E1FFA86FCEF
:100A6000B1FBFEF70EFB1710110C41EA004107FB2A
:100A70000CF8884504FA03F43AD9711807F1FF30ED
:100A800001D288451FD8A1EB0801B1FBFEF808FB95
:100A90000CF70EFB181192B242EA0142BA422FD271
:100AA000B21808F1FF31C6D2BA42C4D2A8F102018D
:100AB0003244C0E7F0459CD2BEEB020367EB0C0763
:100AC0000138B94695E7A6EB08084144B81EB1FBCA
:100AD000FEF808FB0CF7DCE73B467FE7504667E78C
:100AE0000846FBE63444023832E7023F32441BE753
:100AF000A1EB08013846B1FBFEF808FB0CF7C8E78C
:100B0000414698E7704700BF000000000000000069
:100B100001F0FF01102A2BDB10F0070F08D010F8AE
:100B2000013B013A8B422DD010F0070F42B3F6D1B2
:100B3000F0B441EA012141EA014122F007047FF0CB
:100B400000070023F0E80256083C85EA010586EA22
:100B5000010685FA47F5A3FA87F586FA47F6A5FA5E
:100B600087F68EB9EED1F0BC01F0FF0102F007026A
:100B700032B110F8013B013A83EA010313B1F8D115
:100B80000020704701387047002D06BF35460338F6
:100B9000073815F0010F07D1013015F4807F02BF2F
:100BA000013015F4C03F0130F0BC0138704700BF80
:100BB00080B400AF064BD3F88830054A43F4700385
:100BC000C2F8883000BFBD465DF8047B704700BFA7
:100BD00000ED00E080B582B000AF78607B68002B4C
:100BE00001D1012314E07B681B79DBB2002B05D116
:100BF0007B6800225A71786802F0A4F87B680222B0
:100C00001A717B6800221A617B6801221A71002325
:100C100018460837BD4680BD80B483B000AF786009
:100C200039607B68002B01D1012346E07B685B794A
:100C3000012B01D1022340E07B6801225A717B68BD
:100C400002221A717B681B6819683B6803F0100365
:100C500001229A407B681B680A431A603B68002B9C
:100C60000FD17B681B681B6803F03C033C2B1DD134
:100C70007B681B685A687B681B6842F001025A60F7
:100C800014E07B681B681B6803F470123B6803F078
:100C900010033C2101FA03F39A4207D17B681B68D9
:100CA0005A687B681B6842F002025A607B68012226
:100CB0001A717B6800225A71002318460C37BD4612
:100CC0005DF8047B704780B487B000AFF860B9600E
:100CD0007A603B6000237B61FB68002B01D101231C
:100CE00015E0FB681B687B61BB68002B05D17A6946
:100CF0007B68134408337B6104E07A697B681344A2
:100D000014337B617B691A463B68136000231846E5
:100D10001C37BD465DF8047B704780B489B000AFD6
:100D2000F860B9607A600023FB77FB68002B02D083
:100D3000BB68002B01D1012342E0FB685B79012BEA
:100D400001D102233CE0FB6801225A71FB680222B8
:100D50001A71FB681B681B68BB617B6803F010039A
:100D600040F6FE7202FA03F3DB43BA691340BB613B
:100D7000BB681A68BB685B6813437B617B6803F0E0
:100D800010037A6902FA03F3BA691343BB61FB6883
:100D90001B68BA691A60FB681B6819687B6803F0F6
:100DA0001003C02202FA03F3DA43FB681B680A400F
:100DB0001A60FB6801221A71FB6800225A71FB7FDE
:100DC00018462437BD465DF8047B704780B586B071
:100DD00000AF78607B68002B01D1012367E27B685C
:100DE0001B6803F00103002B75D0884B9B6803F050
:100DF0000C03042B0CD0854B9B6803F00C03082BD1
:100E000012D1824B5B6803F48003B3F5800F0BD1E2
:100E10007E4B1B6803F40033002B5BD07B685B6860
:100E2000002B57D1012342E27B685B68B3F5803F1A
:100E300006D1764B1B68754A43F4803313601DE07E
:100E40007B685B68B3F5A02F0CD1704B1B686F4AB1
:100E500043F4802313606D4B1B686C4A43F480336A
:100E600013600BE0694B1B68684A23F480331360FE
:100E7000664B1B68654A23F4802313607B685B68BC
:100E8000002B13D000F0DEFE386108E000F0DAFE3F
:100E900002463B69D31A642B01D9032307E25B4B5B
:100EA0001B6803F40033002BF0D014E000F0CAFEFE
:100EB000386108E000F0C6FE02463B69D31A642B95
:100EC00001D90323F3E1514B1B6803F40033002BDA
:100ED000F0D100E000BF7B681B6803F00203002B29
:100EE00063D04A4B9B6803F00C03002B0BD0474B9D
:100EF0009B6803F00C03082B1CD1444B5B6803F484
:100F00008003002B16D1414B1B6803F00203002B1A
:100F100005D07B68DB68012B01D00123C7E13B4B87
:100F20001B6823F0F8027B681B69DB003749134319
:100F30000B603AE07B68DB68002B20D0344B012249
:100F40001A6000F07FFE386108E000F07BFE024688
:100F50003B69D31A022B01D90323A8E12B4B1B6851
:100F600003F00203002BF0D0284B1B6823F0F8029B
:100F70007B681B69DB00254913430B6015E0244B9C
:100F800000221A6000F05EFE386108E000F05AFEB0
:100F900002463B69D31A022B01D9032387E11B4B7D
:100FA0001B6803F00203002BF0D17B681B6803F081
:100FB0000803002B36D07B685B69002B16D0154BDD
:100FC00001221A6000F03EFE386108E000F03AFEAF
:100FD00002463B69D31A022B01D9032367E10B4B6D
:100FE0005B6F03F00203002BF0D01BE0094B0022E3
:100FF0001A6000F027FE38610EE000F023FE024682
:101000003B69D31A022B07D9032350E10038024071
:1010100000004742800E4742884B5B6F03F002039B
:10102000002BEAD17B681B6803F00403002B00F05F
:1010300097800023FB75814B1B6C03F08053002BC2
:101040000FD10023BB607D4B1B6C7C4A43F0805367
:1010500013647A4B1B6C03F08053BB60BB680123A5
:10106000FB75774B1B6803F48073002B18D1744B0E
:101070001B68734A43F48073136000F0E3FD38612A
:1010800008E000F0DFFD02463B69D31A022B01D9CC
:1010900003230CE16A4B1B6803F48073002BF0D030
:1010A0007B689B68012B06D1644B1B6F634A43F03E
:1010B000010313671CE07B689B68052B0CD15F4B19
:1010C0001B6F5E4A43F0040313675C4B1B6F5B4A64
:1010D00043F0010313670BE0584B1B6F574A23F093
:1010E00001031367554B1B6F544A23F00403136726
:1010F0007B689B68002B15D000F0A4FD38610AE0E6
:1011000000F0A0FD02463B69D31A41F288329342B7
:1011100001D90323CBE0494B1B6F03F00203002BE3
:10112000EED014E000F08EFD38610AE000F08AFD98
:1011300002463B69D31A41F28832934201D9032314
:10114000B5E03E4B1B6F03F00203002BEED1FB7D9D
:10115000012B05D1394B1B6C384A23F080531364A3
:101160007B689B69002B00F0A180344B9B6803F0E7
:101170000C03082B5CD07B689B69022B41D1314B5F
:1011800000221A6000F05EFD386108E000F05AFDB0
:1011900002463B69D31A022B01D9032387E0274B70
:1011A0001B6803F00073002BF0D17B68DA697B6861
:1011B0001B6A1A437B685B6A9B011A437B689B6AC4
:1011C0005B08013B1B041A437B68DB6A1B061B4957
:1011D00013434B601B4B01221A6000F033FD386152
:1011E00008E000F02FFD02463B69D31A022B01D91B
:1011F00003235CE0114B1B6803F00073002BF0D05D
:1012000054E0104B00221A6000F01CFD386108E029
:1012100000F018FD02463B69D31A022B01D90323C3
:1012200045E0064B1B6803F00073002BF0D13DE056
:101230007B689B69012B07D1012338E0003802400D
:1012400000700040600047421B4B5B68FB607B689E
:101250009B69012B28D0FB6803F480027B68DB6963
:101260009A4221D1FB6803F03F027B681B6A9A42D5
:101270001AD1FA6847F6C07313407A68526A92012D
:10128000934211D1FB6803F440327B689B6A5B0890
:10129000013B1B049A4207D1FB6803F070627B6834
:1012A000DB6A1B069A4201D0012300E000231846A6
:1012B0001837BD4680BD00BF0038024080B584B0FD
:1012C00000AF786039607B68002B01D10123CCE04E
:1012D000684B1B6803F007033A689A420CD9654BC8
:1012E0003A68D2B21A70634B1B6803F007033A687E
:1012F0009A4201D00123B8E07B681B6803F0020327
:10130000002B20D07B681B6803F00403002B05D062
:10131000594B9B68584A43F4E05393607B681B68C1
:1013200003F00803002B05D0534B9B68524A43F44B
:1013300060439360504B9B6823F0F0027B689B688E
:101340004D4913438B607B681B6803F00103002B3E
:1013500044D07B685B68012B07D1474B1B6803F4C3
:101360000033002B19D101237FE07B685B68022BDF
:1013700003D07B685B68032B07D13F4B1B6803F0EE
:101380000073002B09D101236FE03B4B1B6803F076
:101390000203002B01D1012367E0374B9B6823F048
:1013A00003027B685B68344913438B6000F04AFC9E
:1013B000F8600AE000F046FC0246FB68D31A41F2EE
:1013C0008832934201D903234FE02B4B9B6803F0F3
:1013D0000C027B685B689B009A42EBD1254B1B6833
:1013E00003F007033A689A420CD2224B3A68D2B211
:1013F0001A70204B1B6803F007033A689A4201D029
:10140000012332E07B681B6803F00403002B08D043
:10141000194B9B6823F4E0527B68DB681649134341
:101420008B607B681B6803F00803002B09D0124B0C
:101430009B6823F460427B681B69DB000E49134301
:101440008B6000F021F802460B4B9B681B0903F0F0
:101450000F030A49CB5C22FA03F3094A1360094BD4
:101460001B68184600F0AAFB002318461037BD463B
:1014700080BD00BF003C024000380240B48200083A
:1014800000000020040000202DE9B04F90B000AF14
:1014900000237B630023FB6300233B630023BB63C8
:1014A000584B9B6803F00C03082B0DD0082B00F25F
:1014B000A080002B02D0042B03D09AE0524BBB63D8
:1014C0009AE0524BBB6397E04E4B5B6803F03F03DF
:1014D0007B634C4B5B6803F48003002B27D0494BA4
:1014E0005B689B0900223B627A623B6AC3F3080097
:1014F0000021464B03FB01F2002300FB03F31344DE
:10150000424AA0FB0221F962BA62FA6A1344FB6202
:101510007B6B0022BB61FA61D7E90623D7E90A0198
:10152000FFF75CF902460B461346FB6353E0354B6D
:101530005B689B0900223B617A613B69C3F3080A3F
:101540004FF0000B52465B464FF000004FF0000199
:10155000590141EAD261500102460B46B2EB0A083A
:1015600063EB0B094FF000024FF000034FEA8913C1
:1015700043EA98634FEA8812B2EB080463EB09056B
:101580004FF000024FF00003EB0043EA5473E20017
:1015900014461D4614EB0A033B6045EB0B037B60CE
:1015A0004FF000024FF00003D7E9004529468B02B7
:1015B000214643EA915321468A02104619467B6B25
:1015C0000022BB60FA60D7E90223FFF707F9024661
:1015D0000B461346FB630B4B5B681B0C03F00303CA
:1015E00001335B003B63FA6B3B6BB2FBF3F3BB6312
:1015F00002E0054BBB6300BFBB6B18464037BD46DE
:10160000BDE8B08F003802400024F40040787D012E
:1016100080B489B000AF7860396000237B6100231B
:101620003B610023BB610023FB616BE10122FB698D
:1016300002FA03F37B613B681B687A6913403B61E4
:101640003A697B699A4240F05A813B685B6803F0D3
:101650000303012B05D03B685B6803F00303022BF7
:1016600030D17B689B68BB61FB695B00032202FA97
:1016700003F3DB43BA691340BB613B68DA68FB697B
:101680005B0002FA03F3BA691343BB617B68BA6972
:101690009A607B685B68BB610122FB6902FA03F315
:1016A000DB43BA691340BB613B685B681B0903F00D
:1016B0000102FB6902FA03F3BA691343BB617B6859
:1016C000BA695A603B685B6803F00303032B17D0C9
:1016D0007B68DB68BB61FB695B00032202FA03F3F2
:1016E000DB43BA691340BB613B689A68FB695B00E6
:1016F00002FA03F3BA691343BB617B68BA69DA6023
:101700003B685B6803F00303022B23D1FB69DA0813
:101710007B68083253F82230BB61FB6903F0070392
:101720009B000F2202FA03F3DB43BA691340BB614B
:101730003B681A69FB6903F007039B0002FA03F395
:10174000BA691343BB61FB69DA087B680832B9697F
:1017500043F822107B681B68BB61FB695B000322B6
:1017600002FA03F3DB43BA691340BB613B685B6871
:1017700003F00302FB695B0002FA03F3BA69134347
:10178000BB617B68BA691A603B685B6803F44033ED
:10179000002B00F0B4800023FB60604B5B6C5F4A61
:1017A00043F4804353645D4B5B6C03F48043FB6004
:1017B000FB685B4AFB699B08023352F82330BB612C
:1017C000FB6903F003039B000F2202FA03F3DB43E0
:1017D000BA691340BB617B68524A93422BD07B6845
:1017E000514A934225D07B68504A93421FD07B6870
:1017F0004F4A934219D07B684E4A934213D07B687C
:101800004D4A93420DD07B684C4A934207D07B6887
:101810004B4A934201D107230EE008230CE0062334
:101820000AE0052308E0042306E0032304E0022382
:1018300002E0012300E00023FA6902F003029200B3
:101840009340BA691343BB613549FB699B08023376
:10185000BA6941F823203B4B9B68BB613B69DB4382
:10186000BA691340BB613B685B6803F48013002BCB
:1018700003D0BA693B691343BB61324ABB699360C9
:10188000304BDB68BB613B69DB43BA691340BB612A
:101890003B685B6803F40013002B03D0BA693B6913
:1018A0001343BB61274ABB69D360264B5B68BB61AE
:1018B0003B69DB43BA691340BB613B685B6803F477
:1018C0000033002B03D0BA693B691343BB611D4A47
:1018D000BB6953601B4B1B68BB613B69DB43BA6947
:1018E0001340BB613B685B6803F48033002B03D07B
:1018F000BA693B691343BB61124ABB691360FB6958
:101900000133FB61FB690F2B7FF690AE00BF00BF78
:101910002437BD465DF8047B704700BF00380240A5
:10192000003801400000024000040240000802406C
:10193000000C024000100240001402400018024057
:10194000001C0240003C014080B485B000AF7860CC
:101950000B467B807B681A697B881340002B02D082
:101960000123FB7301E00023FB73FB7B1846143754
:10197000BD465DF8047B704780B483B000AF7860EB
:101980000B467B8013467B707B78002B03D07A88D4
:101990007B689A6103E07B881A047B689A6100BFC8
:1019A0000C37BD465DF8047B7047000080B485B0FD
:1019B00000AF78607B6803F00703FB600C4BDB68CB
:1019C000BB60BA684FF6FF031340BB60FB681A02A6
:1019D000BB68134343F0BF6343F40033BB60044A66
:1019E000BB68D36000BF1437BD465DF8047B704709
:1019F00000ED00E080B400AF044BDB681B0A03F08D
:101A000007031846BD465DF8047B704700ED00E013
:101A100080B483B000AF03463960FB7197F907309B
:101A2000002B0ADB3B68DAB20C4997F90730120148
:101A3000D2B20B4483F800230AE03B68DAB20849CB
:101A4000FB7903F00F03043B1201D2B20B441A7668
:101A500000BF0C37BD465DF8047B704700E100E035
:101A600000ED00E080B489B000AFF860B9607A6042
:101A7000FB6803F00703FB61FB69C3F10703042B59
:101A800028BF0423BB61FB690433062B02D9FB6921
:101A9000033B00E000237B614FF0FF32BB6902FA99
:101AA00003F3DA43BB681A407B699A404FF0FF3179
:101AB0007B6901FA03F3D9437B680B401343184653
:101AC0002437BD465DF8047B7047000080B582B0C6
:101AD00000AF78607B68013BB3F1807F01D30123C5
:101AE0000FE00A4A7B68013B53600F214FF0FF3043
:101AF000FFF78EFF054B00229A60044B07221A6005
:101B0000002318460837BD4680BD00BF10E000E046
:101B100080B582B000AF78607868FFF747FF00BFFC
:101B20000837BD4680BD80B586B000AF0346B960BA
:101B30007A60FB7300237B61FFF75CFF78617A6852
:101B4000B9687869FFF78EFF024697F90F301146A2
:101B50001846FFF75DFF00BF1837BD4680BD80B552
:101B600082B000AF78607868FFF7B0FF0346184690
:101B70000837BD4680BD000080B500AF0E4B1B6826
:101B80000D4A43F4007313600B4B1B680A4A43F47D
:101B900080631360084B1B68074A43F4807313602B
:101BA0000320FFF7B5FF0F2000F008F801F018FA46
:101BB0000023184680BD00BF003C024080B582B0C3
:101BC00000AF7860124B1A68124B1B7819464FF41D
:101BD0007A73B3FBF1F3B2FBF3F31846FFF7BFFFE1
:101BE0000346002B01D001230EE07B680F2B0AD89F
:101BF000002279684FF0FF30FFF795FF064A7B68B7
:101C00001360002300E0012318460837BD4680BD5D
:101C100000000020080000200400002080B400AF75
:101C2000064B1B781A46064B1B681344044A136084
:101C300000BFBD465DF8047B704700BF0800002070
:101C4000A800002080B400AF034B1B681846BD46B7
:101C50005DF8047B704700BFA800002080B584B009
:101C600000AF7860FFF7EEFFB8607B68FB60FB6851
:101C7000B3F1FF3F05D00A4B1B781A46FB681344AB
:101C8000FB6000BFFFF7DEFF0246BB68D31AFA68AD
:101C90009A42F7D800BF00BF1037BD4680BD00BFD5
:101CA0000800002080B487B000AF786039603B68DE
:101CB0001A687B6853F822303A68126823F00101F1
:101CC0007B6843F822103B689B68082B02D14023B5
:101CD0007B6101E000237B613B685A687B691A43A2
:101CE0003B689B681A433B68DB681A433B681B6987
:101CF0001A433B685B691A433B68DB691A433B68DC
:101D00001B6A1A433B685B6A1A433B689B6A1A4327
:101D10003B68DB6A1A433B681B6B13433B613B68C0
:101D20009B693A6913433B613B68DB6B3A69134338
:101D30003B61104BFB60FB6843F48063FB60FB6816
:101D400043F4E023FB603B681A687B6853F8222069
:101D5000FB68DB4302EA03013B681A683B691943ED
:101D60007B6843F82210002318461C37BD465DF8F7
:101D7000047B70477FFB080080B485B000AFF8603B
:101D8000B9607A60BB681A68BB685B681B011A435C
:101D9000BB689B681B021A43BB68DB681B041A43C1
:101DA000BB681B69013B1B051A43BB685B69023BAF
:101DB0001B0642EA0301BB689B697A68013219433A
:101DC000FB6843F82210002318461437BD465DF81F
:101DD000047B704780B485B000AFF860B9607A606A
:101DE0003B603B68B3F5804F1DD1FB687A6853F8C0
:101DF0002220134B1340BA681168BA685268120166
:101E00001143BA68926812021143BA689269114389
:101E1000BA68D26812040A4343EA0201FB687A688E
:101E200043F8221005E0FB687A686FF0704143F8D0
:101E30002210002318461437BD465DF8047B704716
:101E40000000F0CF80B584B000AFF860B9607A6070
:101E5000FB68002B01D1012338E0FB6893F849307F
:101E6000DBB2002B06D1FB68002283F84820F8681B
:101E700001F07CF8FB681A68FB68083319461046C5
:101E8000FFF710FFFB681868FB689B681A46B96883
:101E9000FFF772FFFB685868FB689A68FB681B6B6A
:101EA0007968FFF797FFFB681B68FA68926853F838
:101EB0002210FB681B68FA68926841F0010143F840
:101EC0002210FB68012283F84920002318461037AE
:101ED000BD4680BD80B584B000AF78607B681A686D
:101EE0007B689B8819461046FFF72EFD0346FB735F
:101EF000FFF7A8FEB8607B68DB79FA7B9A4205D0D1
:101F00007B68FA7BDA717B68BA689A607B689B7938
:101F1000FA7B9A420DD07B689B68BA68D31A1D2B56
:101F200007D97B68FA7B9A71FB7B012B01D10123D6
:101F300000E0002318461037BD4680BD80B584B050
:101F400000AF0346FB80FB88B3F5E16F03D24FF48B
:101F5000E163FB8006E0FB88B3F5486F02D94FF4DC
:101F60004863FB800E4AFB881380FA8813461B03E4
:101F70009B1A03F272639B080A4AA2FB03235B09C4
:101F8000FB60FB68002200210748FEF79CFE034629
:101F9000002B01D000F032FE00BF1037BD4680BDDF
:101FA0000A0000209F00EE09D000002080B584B018
:101FB00000AF7860144B1B881A467B681344FB60A3
:101FC000FB68B3F5E16F03DA4FF4E163FB6006E011
:101FD000FB68B3F5486F02DD4FF44863FB60FB68B4
:101FE0009AB2094B1B889A420AD0FB689BB21846EA
:101FF000FFF7A4FF054B1B78002B01D100F0F8F987
:1020000000BF1037BD4680BD0A000020C000002080
:1020100080B500AF114B1B78002B03D1104B002271
:102020001A701AE00F4B1B78002B0CD00E4B1B685C
:102030000E4A12881146184604F011FD03461A464E
:10204000074B1A7009E0084B1B680021184604F082
:1020500006FD03461A46024B1A7080BDAC000020F4
:10206000AD000020120000200C0000201000002015
:1020700090B587B002AF0446084611461A4623467B
:10208000FB800346BB800B467B8013463B800023CE
:10209000FB8102E0FB890133FB81FB893A6A13442F
:1020A0001B78002BF6D1FB89DB00BB817A88FB888B
:1020B000D31A5A1CBB899A4209D97A88FB88D31A49
:1020C0001A46BB89D31A01335B089BB200E0002398
:1020D000FA8813447B813A88BB88D31A0133102BCA
:1020E00006D93A88BB88D31A0F3B5B089BB200E045
:1020F0000023BA8813443B810C4ABB8C13803B8875
:102100007A88B988F88804F069F9BB8902339AB2F1
:10211000398978893B6A019310230093102304F0D6
:1021200061FB00BF1437BD4690BD00BF3C010020DD
:1021300080B500AF01F038FD012001F07DFC094BB6
:102140004FF6FF721A8004F00DFE04F099FB03466F
:102150001A46054B1A70FFF75BFF00F007F800BF47
:1021600080BD00BF2C000020AC00002080B582B0F4
:1021700002AF4FF6FF7004F041F8874B4FF6FF7245
:102180001A80864B4FF478421A80854B01931823AE
:1021900000931823D22205213A2004F023FB7F4B21
:1021A00000221A807F4B01931023009310233022CA
:1021B0002F21082004F016FB4723AA2226213E20C7
:1021C00004F00CF91F230193774B00934723F2226D
:1021D0002621BE20FFF74CFF1F230193734B009372
:1021E00047234FF498722621FC20FFF741FF6B4BE9
:1021F00000221A806E4B019310230093102330228B
:102200005721082004F0EEFA644B1F221A806D2338
:102210004FF49B724F213E2004F0E0F85F4B002208
:102220001A80644B1A6810230093082357214A2010
:1022300004F0CAF9604B0193102300931023182275
:1022400057218F2004F0CEFA544B48F230421A80C6
:102250005A4B019310230093102348225721DD206D
:1022600004F0C0FA4D4B00221A80554B0193102305
:102270000093102330227D21082004F0B3FA474B4D
:102280001F221A8093234FF49B7275213E2004F085
:10229000A5F8424B00221A804A4B1B881A4610238D
:1022A000009303237D214A2004F08EF9464B0193CD
:1022B00010230093102330227D21692004F092FA2C
:1022C000364B48F230421A803C4B01931023009366
:1022D000102348227D21DD2004F084FA3B4B1B783B
:1022E000002B0ED12D4B4FF478421A80384B0193BE
:1022F00010230093102370229C21692004F072FAAD
:1023000020E0344B1B78002B0ED1244B4FF4784245
:102310001A80314B019310230093102378229C21C3
:10232000652004F05FFA0DE01C4B4FF4FC621A804C
:102330002A4B019310230093102350229C217820D4
:1023400004F050FA264B1B78002B01D0254B00E0FF
:10235000254B234A1278002A02D04FF4FC6201E098
:102360004FF4784201920093D423F522B2214B20FE
:10237000FFF77EFE094B1F221A801C4B01930C2392
:1023800000930C23B422DC214E2004F02BFA00F041
:102390002FF800BFBD4680BD2C0000203C0100206E
:1023A000A4810008B8810008C0810008C481000829
:1023B000C88100080C000020D0810008D4810008EA
:1023C000DC81000810000020E4810008AC0000203F
:1023D000EC810008AD000020FC8100080C820008A0
:1023E00012000020188200082882000838820008A5
:1023F00080B584B002AF284B1B88284AA2FB032378
:102400009B099BB27B60244B1B88244AA2FB0312CE
:1024100092094FF47A7101FB02F29B1A9BB2204A97
:10242000A2FB0323DB089BB23B604FF6FF730093D4
:102430004523A8222821402003F00EFF194B4FF41A
:10244000FC621A801823009301237A682C214B2008
:1024500004F0BAF8144B01931823009318230E22AA
:102460002C21572004F0BEF98023019318230093F8
:1024700002233A682C21632004F018F90B4B0193D6
:1024800018230093182312222C217F2004F0AAF98C
:1024900000BF0837BD4680BD0A000020D34D621042
:1024A000CDCCCCCC3C0100205082000854820008E6
:1024B00080B582B000AF0346FB71094AFB79137007
:1024C000084B00221A70084B00221A70074B00229A
:1024D0001A7000F069F800BF0837BD4680BD00BF24
:1024E000C0000020CE000020C4000020CF0000204B
:1024F00080B582B002AF4FF6FF73009343234FF4D1
:1025000086722B210A2003F0A7FE1F4B00221A809F
:102510001E4B1B78002B0AD01D4B019310230093F8
:10252000102378223021122004F05CF917E0194BB7
:102530001B78012B09D1184B1A681023009308232C
:102540003021122004F040F809E0144B1B881A4691
:102550001023009303233021122004F035F8104B90
:102560001B78002B0DD0084B4FF478421A800D4B8E
:10257000019310230093102340223021B42004F053
:1025800031F900BFBD4680BD3C010020CE000020D7
:10259000C4000020C00000200C000020100000201B
:1025A000CF0000205882000890B587B002AF4FF6E8
:1025B000FF7003F023FE4E4B4FF6FF721A804D4B17
:1025C0004FF478421A804C4B1B78012B01D14B4BB6
:1025D00000E04B4B0193182300931823BE220721E0
:1025E000082004F0FFF8434B48F230421A80424B77
:1025F0001B78012B01D1434B00E0434B01930C238B
:1026000000930C234E220C21CA2004F0EBF8394B26
:102610001F221A8045234FF487722921082003F0D6
:10262000DDFE4FF478430193384B0093462340F28C
:102630003B1226214FF48C70FFF71AFD0023FB7329
:102640004CE00023BB7343E0BB7B9BB21A465200B5
:102650001A4492001344DB009BB20833BB81FB7B1E
:102660009BB21A4692001A44D200D31A9BB24A3344
:102670007B81FA7BB97B264813465B0013440344F5
:102680000B441B783B7100237B710023BB71FA7BE9
:10269000B97B1F4813465B00134403440B441B786B
:1026A0004F2B03D14F233B714B237B71BB895F338E
:1026B0009AB27B8921339CB27989B8891F2301930F
:1026C0003B1D00932346FFF7D3FCBB7B0133BB7359
:1026D000BB7B022BB8D9FB7B0133FB73FB7B032B4A
:1026E000AFD9FFF705FF00BF1437BD4690BD00BF4F
:1026F0002C0000203C010020C00000206082000867
:102700007082000880820008908200089C82000885
:10271000C482000880B483B000AF0346FB71FB792C
:102720003C2B10D11A4B1B78002B28D0184B1B7850
:10273000013BDAB2164B1A70154B1B781A46154B33
:10274000002199541BE0FB792F2B18D9FB79392BE9
:1027500015D80F4B1B78082B11D80D4B1B78194639
:102760000C4AFB7953540A4B1B780133DAB2084BFD
:102770001A70074B1B781A46064B00219954064BDA
:1027800000221A7000BF0C37BD465DF8047B70470D
:10279000CE000020C4000020CF00002080B483B011
:1027A00000AF00237B600023FB700EE07A681346C5
:1027B0009B0013445B001946FB780A4AD35C0B4428
:1027C000303B7B60FB780133FB70074B1B78FA785A
:1027D0009A42EBD37B6818460C37BD465DF8047B04
:1027E000704700BFC4000020CE00002080B586B036
:1027F00000AF03460A46FB801346BB80FB88B3F557
:102800008C7F0FD3FB88B3F5A07F0BD2BB88212B25
:1028100008D9BB88482B05D84B4B00221A70FFF70C
:10282000A5FC8EE00023FB7587E00023BB757DE0EF
:10283000BB7D9BB21A4652001A4492001344DB003F
:102840009BB208337B82FB7D9BB21A4692001A44EE
:10285000D200D31A9BB24A333B82FA887B8A9A42CF
:1028600061D3FA887B8A60339A425CD2BA883B8A09
:102870009A4258D3BA883B8A22339A4253D2FA7D7D
:10288000B97D324813465B00134403440B441B7864
:10289000FB73FB7B4F2B3FD12D4B1B78002B03D0C1
:1028A000FFF77CFF034608E0274B1B78012B02D083
:1028B000284B1B8801E0284B1B68BB6000237B75FD
:1028C000214B1B78012B0CD1BB68002B13D0BB68AC
:1028D000224A93420FD8204ABB68136001237B75BC
:1028E00009E0BB68B3F5FA7F05D8BB689AB2194B0B
:1028F0001A8001237B757B7D002B07D0FFF788FBB7
:10290000114B00221A70FFF731FC1AE0144B012220
:102910001A70FFF7EDFD14E0FB7B1846FFF7FAFE97
:10292000FFF7E6FD0DE0BB7D0133BB75BB7D022BE0
:102930007FF67EAFFB7D0133FB75FB7D032B7FF6BE
:1029400074AF1837BD4680BDC0000020D08200089B
:10295000CE000020100000200C000020809698007F
:10296000CF00002080B582B000AF03460A46FB804E
:102970001346BB80354B1B78002B06D0BA88FB88EA
:1029800011461846FFF732FF5CE0FB88BD2B0DD9DE
:10299000FB88F22B0AD8BB88252B07D9BB88472B8D
:1029A00004D86FF00900FFF701FB4BE0FB88FB2B1D
:1029B0000DD9FB88B3F5987F09D8BB88252B06D99C
:1029C000BB88472B03D80A20FFF7F0FA3AE0FB88D0
:1029D0003D2B0DD9FB88B3F59B7F09D8BB884E2BC7
:1029E00006D9BB886D2B03D80120FFF761FD29E0D4
:1029F000FB883D2B0DD9FB88B3F59B7F09D8BB889D
:102A0000742B06D9BB88932B03D80220FFF750FD07
:102A100018E0FB884A2B15D9FB88F52B12D8BB8808
:102A2000B12B0FD9BB88D42B0CD8094B1B78002BAA
:102A300001D1012200E00022054B1A70FFF7E8FAED
:102A4000FFF794FB0837BD4680BD00BFC0000020E3
:102A50001200002080B582B000AFFFF7F3F8786075
:102A6000124B1B687A68D31A092B1AD90F4A7B6854
:102A700013600F4804F0FCF90D4B1B78002B0BD0B2
:102A80000C4B1B78002B07D1094B5B88084A9288B6
:102A900011461846FFF766FF054B1A78054B1A706A
:102AA00000E000BF0837BD4680BD00BFBC0000206D
:102AB000B0000020BA00002080B500AFFFF75CF83E
:102AC00000F032F800F0A0F800F012F900F07EF902
:102AD00000211248FEF7A0F80346002B01D000F0B9
:102AE0008DF840F6C410FFF729FAFFF721FB0C48D8
:102AF000FFF7F0F90346002B02D00A20FFF756FA41
:102B00000848FFF7E7F90346002B03D06FF00900F0
:102B1000FFF74CFAFFF79EFFE9E700BFD000002067
:102B2000140000202000002080B594B000AF07F111
:102B3000200330220021184604F016FD07F10C0393
:102B400000221A605A609A60DA601A610023BB6042
:102B5000284B1B6C274A43F080531364254B1B6C96
:102B600003F08053BB60BB6800237B60224B1B6873
:102B7000214A43F4804313601F4B1B6803F48043D6
:102B80007B607B6802233B620123FB6210233B6373
:102B90000223BB630023FB6308233B64A8237B64FD
:102BA0000223BB640423FB6407F120031846FEF7ED
:102BB0000DF90346002B01D000F020F80F23FB6035
:102BC00002233B6100237B614FF4A053BB614FF4B0
:102BD0008053FB6107F10C0305211846FEF76EFBDD
:102BE0000346002B01D000F009F800BF5037BD4666
:102BF00080BD00BF003802400070004080B400AFCC
:102C000072B600BF00BFFDE780B58AB000AF07F124
:102C1000140300221A605A609A60DA601A61002375
:102C20003B61304B1B6B2F4A43F0100313632D4B5A
:102C30001B6B03F010033B613B690023FB60294BD6
:102C40001B6B284A43F001031363264B1B6B03F0F5
:102C50000103FB60FB680023BB60224B1B6B214A16
:102C600043F0200313631F4B1B6B03F02003BB6077
:102C7000BB6800237B601B4B1B6B1A4A43F00803A5
:102C80001363184B1B6B03F008037B607B68002306
:102C90003B60144B1B6B134A43F040031363114B0F
:102CA0001B6B03F040033B603B6810237B610023F8
:102CB000BB610223FB6107F1140319460A48FEF7C2
:102CC000A7FC01237B610023BB610223FB6107F1A9
:102CD000140319460548FEF79BFC00BF2837BD4684
:102CE00080BD00BF003802400010024000000240DA
:102CF00080B582B000AF3B4600221A605A600F4B8D
:102D00000F4A1A600D48FDF765FF0346002B01D0FE
:102D1000FFF774FF00233B6002237B603B460022E9
:102D200019460648FDF7F9FF0346002B01D0FFF7CF
:102D300065FF00BF0837BD4680BD00BFD000002042
:102D40000074004080B58AB000AF786007F11403CA
:102D500000221A605A609A60DA601A617B681B6808
:102D6000174A934227D100233B61164B1B6C154A2F
:102D700043F000531364134B1B6C03F000533B618F
:102D80003B690023FB600F4B1B6B0E4A43F00103B2
:102D900013630C4B1B6B03F00103FB60FB681023F8
:102DA0007B610323BB610023FB6107F11403194618
:102DB0000548FEF72DFC00BF2837BD4680BD00BF8B
:102DC00000740040003802400000024080B588B026
:102DD00000AF3B1D00221A605A609A60DA601A61E7
:102DE0005A619A61274B4FF020421A60254B264AC0
:102DF0005A60244B06229A60224B0022DA60214B53
:102E000000221A611F4B10225A611E4B00229A6148
:102E10001C4B0022DA611B4B00221A62194B002264
:102E20005A62184B4FF480529A62164B0022DA62B3
:102E3000144B00221A63134B00225A63114B0022D9
:102E40009A63104B00225A6409237B600F23BB60F6
:102E50000923FB600F233B6110237B611123BB61BE
:102E60000023FB613B1D002219460648FEF7EAFFDE
:102E70000346002B01D0FFF7C1FE00BF2037BD463F
:102E800080BD00BFE4000020040100A080B586B032
:102E900000AF3B1D00221A605A609A60DA601A6126
:102EA0002C4B1B68002B51D12A4B01221A600023A6
:102EB0003B60294B9B6B284A43F001039363264BED
:102EC0009B6B03F001033B603B684FF480537B60D6
:102ED0000223BB600023FB6003233B610C237B6167
:102EE0003B1D19461D48FEF793FB4FF680737B6030
:102EF0000223BB600023FB6003233B610C237B6147
:102F00003B1D19461648FEF783FB4CF233737B607A
:102F10000223BB600023FB6003233B610C237B6126
:102F20003B1D19460F48FEF773FB4FF480537B603F
:102F30000223BB600023FB6003233B610C237B6106
:102F40003B1D19460848FEF763FB00E000BF183739
:102F5000BD4680BD3401002000380240001402400C
:102F600000100240000C02400018024080B582B000
:102F700000AF7860FFF78AFF00BF0837BD4680BD0D
:102F800080B400AF00BFFDE780B400AF00BFFDE735
:102F900080B400AF00BFFDE780B400AF00BFFDE725
:102FA00080B400AF00BFFDE780B400AF00BFBD46F6
:102FB0005DF8047B704780B400AF00BFBD465DF88C
:102FC000047B704780B400AF00BFBD465DF8047B52
:102FD000704780B500AFFEF721FE00BF80BD000046
:102FE00080B483B000AF00237B60104B5B6C0F4A52
:102FF00043F4804353640D4B5B6C03F480437B606C
:103000007B6800233B60094B1B6C084A43F08053EC
:103010001364064B1B6C03F080533B603B6800BF9E
:103020000C37BD465DF8047B704700BF0038024096
:1030300080B586B000AF7860144A154BD31A7B6117
:103040007B693B61134B1B68002B02D1114B124A69
:103050001A60104B1A687B6813443A699A4207D287
:1030600004F0D0FA03460C221A604FF0FF3309E057
:10307000084B1B68FB60074B1A687B681344054AC2
:103080001360FB6818461837BD4680BD000002205B
:103090000004000038010020A002002080B586B0A6
:1030A00000AFF860B9607A6000237B610AE0AFF39B
:1030B00000800146BB685A1CBA60CAB21A707B69AC
:1030C00001337B617A697B689A42F0DB7B68184642
:1030D0001837BD4680BD80B586B000AFF860B960D6
:1030E0007A6000237B6109E0BB685A1CBA601B78D8
:1030F0001846AFF300807B6901337B617A697B6896
:103100009A42F1DB7B6818461837BD4680BD80B413
:1031100083B000AF78604FF0FF3318460C37BD46E0
:103120005DF8047B704780B483B000AF786039608D
:103130003B684FF400525A60002318460C37BD46D6
:103140005DF8047B704780B483B000AF78600123E2
:1031500018460C37BD465DF8047B704780B485B0D7
:1031600000AFF860B9607A60002318461437BD4696
:103170005DF8047B70470000DFF834D0FDF718FDE0
:103180000C480D490D4A002302E0D458C4500433C2
:10319000C4188C42F9D30A4A0A4C002301E0136098
:1031A0000432A242FBD304F033FAFFF785FC7047E8
:1031B00000000220000000208C000020E09A00089F
:1031C0008C0000209C020020FEE7000080B487B045
:1031D00000AF78601A4B1B681A4AA2FB03239B0CB2
:1031E0003B61194B5B687B617B683A6902FB03F3C7
:1031F000FB60164BDB6803F08073002B11D1134B7F
:10320000DB68124A43F08073D3600F4B00225A6090
:103210000D4B1B680C4A43F0010313600A4B5B68BB
:103220007B6100BF084B5A687B69D31AFA689A42DF
:10323000F8D800BF00BF1C37BD465DF8047B70475F
:103240000000002083DE1B43001000E0F0ED00E0F2
:1032500080B586B000AF3B1D00221A605A609A60AC
:10326000DA601A6100233B60114B1B6B104A43F07C
:10327000020313630E4B1B6B03F002033B603B68BE
:103280004FF400437B600123BB600023FB600023FD
:103290003B613B1D19460748FEF7BAF901224FF47E
:1032A00000410448FEF768FB00BF1837BD4680BDEB
:1032B000003802400004024080B483B000AF0346EF
:1032C000FB80FB889BB2FB80044BFA8892B21A8089
:1032D00000BF0C37BD465DF8047B70477E00006C74
:1032E00080B483B000AF0346FB80FB889BB2FB80B9
:1032F000044BFA8892B25A8000BF0C37BD465DF885
:10330000047B70477E00006C80B483B000AF064B36
:103310005B889BB2FB80FB889BB218460C37BD468E
:103320005DF8047B704700BF7E00006C80B483B002
:1033300000AF03460A46FB801346BB80054AFB8864
:103340001380044ABB88538000BF0C37BD465DF82C
:10335000047B70477E00006C80B400AF044B054ACC
:1033600012891A8000BFBD465DF8047B704700BF1C
:103370007E00006C4001002080B582B000AF0346A3
:103380000A46FB801346BB80654B9B8841F663125F
:10339000934267D1624B9B79002B1ED1604B1A88F8
:1033A000FB88D31A9BB2013BFB805D4B5B891846BF
:1033B000FFF782FF0020FFF793FF0020FFF790FF49
:1033C000FB881B0A9BB21846FFF78AFFFB88DBB21B
:1033D0009BB21846FFF784FF21E0514B5B891846EA
:1033E000FFF76AFFFB881B0A9BB21846FFF778FFBE
:1033F000FB88DBB29BB21846FFF772FF484B1B8875
:10340000013B1B129BB21846FFF76AFF444B1B8817
:10341000013B9BB2DBB29BB21846FFF761FF404B0A
:103420009B891846FFF748FFBB881B0A9BB21846CA
:10343000FFF756FFBB88DBB29BB21846FFF750FF81
:10344000374B5B88013B1B129BB21846FFF748FFC6
:10345000334B5B88013B9BB2DBB29BB21846FFF754
:103460003FFF58E02E4B9B8845F21052934230D1DB
:103470002B4B5B891846FFF71FFFFB881B0A9BB28B
:103480001846FFF72DFF264B5B8901339BB2184688
:10349000FFF712FFFB88DBB29BB21846FFF720FF55
:1034A0001F4B9B891846FFF707FFBB881B0A9BB27F
:1034B0001846FFF715FF1A4B9B8901339BB218463C
:1034C000FFF7FAFEBB88DBB29BB21846FFF708FF96
:1034D00021E0134B5B891846FFF7EEFEFB881B0AC1
:1034E0009BB21846FFF7FCFEFB88DBB29BB2184686
:1034F000FFF7F6FE0A4B9B891846FFF7DDFEBB88F7
:103500001B0A9BB21846FFF7EBFEBB88DBB29BB2EF
:103510001846FFF7E5FE00BF0837BD4680BD00BF77
:103520004001002080B584B000AF0346FB7100234A
:10353000FB810023BB81994B9B79012B05D1974BD4
:103540009B8841F66312934209D1944B9B79002BDF
:1035500034D1924B9B8841F6631293422ED1FB7972
:10356000072B2BD801A252F823F000BF8D3500089D
:1035700093350008993500089F350008A5350008E7
:10358000AB350008B1350008B73500080623FB71DC
:1035900014E00723FB7111E00423FB710EE0052307
:1035A000FB710BE00123FB7108E00023FB7105E0D8
:1035B0000323FB7102E00223FB7100BFFB79072BA1
:1035C00035D801A252F823F02F360008E93500085B
:1035D000F3350008FD3500080736000811360008ED
:1035E0001B36000825360008FB8943F08003FB8169
:1035F0001DE0FB8943F04003FB8118E0FB8943F0A9
:10360000C003FB8113E0FB8943F02003FB810EE044
:10361000FB8943F06003FB8109E0FB8943F0A003D1
:10362000FB8104E0FB8943F0E003FB8100BF5B4BBF
:103630009B8845F21052934203D14FF45853BB81FB
:1036400001E03623BB81554B9B8849F241329342BE
:1036500005D0524B9B8847F28972934203D1FB8974
:1036600043F00803FB81FA89BB8911461846FFF72E
:103670005DFE4A4B9B8841F66312934225D0FB893D
:1036800003F02003002B10D0444B1A88434B5B8877
:103690009A421AD2414B1B887B81404B5A883F4B40
:1036A0001A803E4A7B8953800FE03C4B1A883B4B83
:1036B0005B889A4209D9394B1B887B81374B5A88E2
:1036C000364B1A80354A7B895380344B9B8845F2B0
:1036D0001052934264D1314B5B891846FFF7ECFDE1
:1036E0000020FFF7FDFD2D4B5B8901339BB218468F
:1036F000FFF7E2FD0020FFF7F3FD284B5B89023363
:103700009BB21846FFF7D8FD244B1B88013B1B12C8
:103710009BB21846FFF7E4FD204B5B8903339BB255
:103720001846FFF7C9FD1D4B1B88013B9BB2DBB25E
:103730009BB21846FFF7D4FD184B9B891846FFF73C
:10374000BBFD0020FFF7CCFD144B9B8901339BB2DE
:103750001846FFF7B1FD0020FFF7C2FD0F4B9B8914
:1037600002339BB21846FFF7A7FD0C4B5B88013B69
:103770001B129BB21846FFF7B3FD084B9B8903331E
:103780009BB21846FFF798FD044B5B88013B9BB248
:10379000DBB29BB21846FFF7A3FD39E040010020E1
:1037A0001D4B5B891846FFF787FD0020FFF798FD4A
:1037B0000020FFF795FD184B1B88013B1B129BB2A5
:1037C0001846FFF78DFD144B1B88013B9BB2DBB203
:1037D0009BB21846FFF784FD0F4B9B891846FFF7F5
:1037E0006BFD0020FFF77CFD0020FFF779FD0A4B01
:1037F0005B88013B1B129BB21846FFF771FD064B1D
:103800005B88013B9BB2DBB29BB21846FFF768FDB9
:1038100000BF1037BD4680BD4001002080B582B09A
:1038200000AF03460A46FB801346BB80BA88FB887C
:1038300011461846FFF7A0FDFFF78EFD034B044A23
:1038400012885A8000BF0837BD4680BD7E00006CDC
:103850003C01002080B582B000AF0346FB800B46E0
:10386000BB8013467B80584B9B8845F21052934295
:1038700030D1554B5B891846FFF71EFDFB881B0AAC
:103880009BB21846FFF72CFD4F4B5B8901339BB26F
:103890001846FFF711FDFB88DBB29BB21846FFF715
:1038A0001FFD494B9B891846FFF706FDBB881B0A85
:1038B0009BB21846FFF714FD434B9B8901339BB223
:1038C0001846FFF7F9FCBB88DBB29BB21846FFF73E
:1038D00007FD6DE03C4B9B8841F66312934245D156
:1038E000394B9B79002B06D1374B1A88FB88D31AAA
:1038F0009BB2013BFB80344B5B891846FFF7DCFC35
:10390000FB881B0A9BB21846FFF7EAFCFB88DBB278
:103910009BB21846FFF7E4FCFB881B0A9BB21846D3
:10392000FFF7DEFCFB88DBB29BB21846FFF7D8FC42
:10393000254B9B891846FFF7BFFCBB881B0A9BB22F
:103940001846FFF7CDFCBB88DBB29BB21846FFF7E9
:10395000C7FCBB881B0A9BB21846FFF7C1FCBB889B
:10396000DBB29BB21846FFF7BBFC21E0164B5B892C
:103970001846FFF7A1FCFB881B0A9BB21846FFF70D
:10398000AFFCFB88DBB29BB21846FFF7A9FC0E4BDD
:103990009B891846FFF790FCBB881B0A9BB2184610
:1039A000FFF79EFCBB88DBB29BB21846FFF798FC82
:1039B000064B054A12891A80044A7B88538000BF4F
:1039C0000837BD4680BD00BF400100207E00006C6E
:1039D00080B582B000AF0346FB71BE20FFF76CFCE0
:1039E0000520FFF77DFCFB791846FCF76DFE10A360
:1039F000D3E90023FCF7ECFB02460B4610461946C0
:103A0000FCF7CCFE03469BB21846FFF769FC012089
:103A1000FFF766FCFF20FFF763FC0020FFF760FC68
:103A20000020FFF75DFC00BF0837BD4680BD00BF2A
:103A3000666666666666044080B582B000AF03467F
:103A4000FB71584AFB799371FB79002B51D1554B8F
:103A5000F0221A80534B4FF4A0725A80514B9B882E
:103A600045F21052934214D14E4B4FF430521A810A
:103A70004C4B4FF428525A814A4B4FF42C529A81A6
:103A8000484B4FF4F0721A80464B4FF448725A80FC
:103A900020E0444B9B8841F66312934211D1414B85
:103AA0002C221A813F4B2B225A813E4B2A229A818B
:103AB0003C4B4FF4F0721A803A4B4FF448725A80E4
:103AC00008E0384B2C221A81364B2A225A81354B7A
:103AD0002B229A81334B9B8845F21032934259D165
:103AE000304B4FF4A0721A802E4B4FF4F0725A8074
:103AF00050E02C4B4FF4A0721A802A4BF0225A80CF
:103B0000284B9B8845F21052934214D1254B4FF419
:103B100030521A81234B4FF428525A81214B4FF4D3
:103B20002C529A811F4B4FF448721A801D4B4FF450
:103B3000F0725A8020E01B4B9B8841F6631293423F
:103B400011D1184B2C221A81164B2A225A81154B5F
:103B50002B229A81134B4FF448721A80114B4FF469
:103B6000F0725A8008E00F4B2C221A810D4B2A224A
:103B70005A810C4B2B229A810A4B9B8845F21032BA
:103B8000934207D1074B4FF4F0721A80054B4FF464
:103B9000A0725A800020FFF7C5FC00BF0837BD4661
:103BA00080BD00BF4001002080B500AF3220FEF78D
:103BB00055F8D320FFF780FBFFF7A6FB03461A4614
:103BC0009A4B9A80FFF7A0FB03461A46974B9A80C0
:103BD000FFF79AFB03461A46944B9A80934B9B88B7
:103BE0001B029AB2914B9A80FFF78EFB03461A464E
:103BF0008E4B9B8813439AB28C4B9A808B4B9B883D
:103C000049F24132934200F0D3800420FFF754FB85
:103C1000FFF77AFB03461A46844B9A80FFF774FB42
:103C200003461A46814B9A80FFF76EFB03461A46FD
:103C30007E4B9A807D4B9B881B029AB27B4B9A806D
:103C4000FFF762FB03461A46784B9B8813439AB2F0
:103C5000764B9A80754B9B8848F25252934203D11F
:103C6000724B47F289729A80704B9B8847F2897237
:103C7000934200F09D80D420FFF71EFBFFF744FB2A
:103C800003461A46694B9A80FFF73EFB03461A46E5
:103C9000664B9A80FFF738FB03461A46634B9A80BF
:103CA000624B9B881B029AB2604B9A80FFF72CFBF9
:103CB00003461A465D4B9B8813439AB25B4B9A802E
:103CC0005A4B9B8845F21032934271D055214FF4E4
:103CD0007040FFF72BFBAA214FF20100FFF726FBF4
:103CE00052214FF20200FFF721FB08214FF203009F
:103CF000FFF71CFB01214FF20400FFF717FB4FF405
:103D00004540FFF7D9FAFFF7FFFA03461A46474B3B
:103D10009A80464B9B881B029AB2444B9A804CF285
:103D20000150FFF7C9FAFFF7EFFA03461A463F4B77
:103D30009B8813439AB23D4B9A800520FDF78EFF76
:103D40003A4B9B88B3F5004F03D1384B45F21052E4
:103D50009A80364B9B8845F21052934228D0A1207E
:103D6000FFF7AAFAFFF7D0FA03461A462F4B9A80BC
:103D7000FFF7CAFA03461A462C4B9A802B4B9B88B6
:103D80001B029AB2294B9A80FFF7BEFA03461A46E5
:103D9000264B9B8813439AB2244B9A80234B9B88D3
:103DA00045F26172934203D1204B41F663129A802F
:103DB0001E4B9B8849F24132934217D01B4B9B8884
:103DC00047F28972934211D0184B9B8845F210320A
:103DD00093420BD0154B9B8845F21052934205D06D
:103DE000124B9B8841F66312934229D1104B9B6979
:103DF0000F4A23F00F0393610D4B9B690C4A23F488
:103E0000706393610A4B9B69094A43F00303936112
:103E1000064B9B8847F2897293420BD1044B9B69F6
:103E2000034A43F4407393610AE000BF400100205D
:103E3000040100A0944B9B69934A43F4007393617F
:103E4000924B9B881946924803F038FB8F4B9B8816
:103E500049F24132934240F01D81CF20FFF72CFA06
:103E60000020FFF73DFAC120FFF73AFA3020FFF7B4
:103E700037FAED20FFF720FA6420FFF731FA03202C
:103E8000FFF72EFA1220FFF72BFA8120FFF728FA0E
:103E9000E820FFF711FA8520FFF722FA1020FFF73C
:103EA0001FFA7A20FFF71CFACB20FFF705FA39201A
:103EB000FFF716FA2C20FFF713FA0020FFF710FA8D
:103EC0003420FFF70DFA0220FFF70AFAF720FFF778
:103ED000F3F92020FFF704FAEA20FFF7EDF90020BC
:103EE000FFF7FEF90020FFF7FBF9C020FFF7E4F928
:103EF0001B20FFF7F5F9C120FFF7DEF90120FFF7DE
:103F0000EFF9C520FFF7D8F93020FFF7E9F93020A5
:103F1000FFF7E6F9C720FFF7CFF9B720FFF7E0F981
:103F20003620FFF7C9F94820FFF7DAF93A20FFF702
:103F3000C3F95520FFF7D4F9B120FFF7BDF90020F0
:103F4000FFF7CEF91A20FFF7CBF9B620FFF7B4F947
:103F50000A20FFF7C5F9A220FFF7C2F9F220FFF708
:103F6000ABF90020FFF7BCF92620FFF7A5F90120E7
:103F7000FFF7B6F9E020FFF79FF90F20FFF7B0F940
:103F80002A20FFF7ADF92820FFF7AAF90820FFF74C
:103F9000A7F90E20FFF7A4F90820FFF7A1F9542094
:103FA000FFF79EF9A920FFF79BF94320FFF798F947
:103FB0000A20FFF795F90F20FFF792F90020FFF78D
:103FC0008FF90020FFF78CF90020FFF789F9002016
:103FD000FFF786F9E120FFF76FF90020FFF780F97E
:103FE0001520FFF77DF91720FFF77AF90720FFF773
:103FF00077F91120FFF774F90620FFF771F92B20EC
:10400000FFF76EF95620FFF76BF93C20FFF768F9D0
:104010000520FFF765F91020FFF762F90F20FFF781
:104020005FF93F20FFF75CF93F20FFF759F90F20B8
:10403000FFF756F92B20FFF73FF90020FFF750F963
:104040000020FFF74DF90120FFF74AF93F20FFF765
:1040500047F92A20FFF730F90020FFF741F9002047
:10406000FFF73EF90020FFF73BF9EF20FFF738F9A3
:104070001120FFF721F97820FDF7F0FD2920FFF747
:104080001BF902F0AEB800BF040100A040010020FF
:10409000A08200086D4B9B8847F28972934240F0E2
:1040A000D7801120FFF708F97820FDF7D7FD3620DB
:1040B000FFF702F90020FFF713F93A20FFF7FCF8A9
:1040C0000520FFF70DF9B220FFF7F6F80C20FFF7F7
:1040D00007F90C20FFF704F90020FFF701F933205E
:1040E000FFF7FEF83320FFF7FBF8B720FFF7E4F8FF
:1040F0003520FFF7F5F8BB20FFF7DEF83220FFF799
:10410000EFF8C020FFF7D8F80C20FFF7E9F8C2203D
:10411000FFF7D2F80120FFF7E3F8C320FFF7CCF850
:104120001020FFF7DDF8C420FFF7C6F82020FFF7C6
:10413000D7F8C620FFF7C0F80F20FFF7D1F8D0203E
:10414000FFF7BAF8A420FFF7CBF8A120FFF7C8F8D3
:10415000E020FFF7B1F8D020FFF7C2F80020FFF70A
:10416000BFF80220FFF7BCF80720FFF7B9F80A20D4
:10417000FFF7B6F82820FFF7B3F83220FFF7B0F8C2
:104180004420FFF7ADF84220FFF7AAF80620FFF71A
:10419000A7F80E20FFF7A4F81220FFF7A1F81420CB
:1041A000FFF79EF81720FFF79BF8E120FFF784F850
:1041B000D020FFF795F80020FFF792F80220FFF7D4
:1041C0008FF80720FFF78CF80A20FFF789F82820DE
:1041D000FFF786F83120FFF783F85420FFF780F8C7
:1041E0004720FFF77DF80E20FFF77AF81C20FFF735
:1041F00077F81720FFF774F81B20FFF771F81E20DF
:10420000FFF76EF82A20FFF757F80020FFF768F84D
:104210000020FFF765F80020FFF762F8EF20FFF7B6
:104220005FF82B20FFF748F80020FFF759F800202F
:10423000FFF756F80120FFF753F83F20FFF750F83B
:104240002920FFF739F801F0CCBF00BF4001002062
:10425000034B9B8845F21032934240F07C8701E08B
:1042600040010020ED20FFF727F80120FFF738F884
:10427000FE20FFF735F8EE20FFF71EF8DE20FFF7EF
:104280002FF82120FFF72CF8F120FFF715F8012077
:10429000FFF726F8DF20FFF70FF81020FFF720F8D0
:1042A000C420FFF709F88F20FFF71AF8C620FFF7A0
:1042B00003F80020FFF714F8E220FFF711F8E220DE
:1042C000FFF70EF8E220FFF70BF8BF20FEF7F4FF30
:1042D000AA20FFF705F8B020FEF7EEFF0D20FEF74D
:1042E000FFFF0020FEF7FCFF0D20FEF7F9FF002086
:1042F000FEF7F6FF1120FEF7F3FF0020FEF7F0FFB8
:104300001920FEF7EDFF0020FEF7EAFF2120FEF75F
:10431000E7FF0020FEF7E4FF2D20FEF7E1FF00207D
:10432000FEF7DEFF3D20FEF7DBFF0020FEF7D8FFA3
:104330005D20FEF7D5FF0020FEF7D2FF5D20FEF7DF
:10434000CFFF0020FEF7CCFFB120FEF7B5FF8020A5
:10435000FEF7C6FF0020FEF7C3FF8B20FEF7C0FF6D
:104360000020FEF7BDFF9620FEF7BAFF0020FEF703
:10437000B7FFB220FEF7A0FF0020FEF7B1FF00203C
:10438000FEF7AEFF0220FEF7ABFF0020FEF7A8FF0E
:104390000320FEF7A5FF0020FEF7A2FFB320FEF7E3
:1043A0008BFF0020FEF79CFF0020FEF799FF002006
:1043B000FEF796FF0020FEF793FF0020FEF790FF28
:1043C0000020FEF78DFF0020FEF78AFF0020FEF799
:1043D00087FF0020FEF784FF0020FEF781FF00200A
:1043E000FEF77EFF0020FEF77BFF0020FEF778FF40
:1043F0000020FEF775FF0020FEF772FF0020FEF799
:104400006FFF0020FEF76CFF0020FEF769FF002021
:10441000FEF766FF0020FEF763FF0020FEF760FF57
:104420000020FEF75DFF0020FEF75AFF0020FEF798
:1044300057FFB420FEF740FF8B20FEF751FF00200E
:10444000FEF74EFF9620FEF74BFF0020FEF748FFD9
:10445000A120FEF745FF0020FEF742FFB520FEF742
:104460002BFF0220FEF73CFF0020FEF739FF032060
:10447000FEF736FF0020FEF733FF0420FEF730FF83
:104480000020FEF72DFFB620FEF716FF0020FEF7F6
:1044900027FF0020FEF724FFB720FEF70DFF0020C6
:1044A000FEF71EFF0020FEF71BFF3F20FEF718FF60
:1044B0000020FEF715FF5E20FEF712FF0020FEF73A
:1044C0000FFF6420FEF70CFF0020FEF709FF8C2091
:1044D000FEF706FF0020FEF703FFAC20FEF700FF0B
:1044E0000020FEF7FDFEDC20FEF7FAFE0020FEF7BE
:1044F000F7FE7020FEF7F4FE0020FEF7F1FE90209C
:10450000FEF7EEFE0020FEF7EBFEEB20FEF7E8FEE6
:104510000020FEF7E5FEDC20FEF7E2FE0020FEF7BD
:10452000DFFEB820FEF7C8FE0020FEF7D9FE00200F
:10453000FEF7D6FE0020FEF7D3FE0020FEF7D0FEE9
:104540000020FEF7CDFE0020FEF7CAFE0020FEF799
:10455000C7FE0020FEF7C4FEBA20FEF7ADFE242001
:10456000FEF7BEFE0020FEF7BBFE0020FEF7B8FE01
:104570000020FEF7B5FEC120FEF79EFE2020FEF7CC
:10458000AFFE0020FEF7ACFE5420FEF7A9FE00208F
:10459000FEF7A6FEFF20FEF7A3FE0020FEF7A0FE1A
:1045A000C220FEF789FE0A20FEF79AFE0020FEF7E1
:1045B00097FE0420FEF794FE0020FEF791FEC32034
:1045C000FEF77AFE3C20FEF78BFE0020FEF788FE09
:1045D0003A20FEF785FE0020FEF782FE3920FEF726
:1045E0007FFE0020FEF77CFE3720FEF779FE0020DC
:1045F000FEF776FE3C20FEF773FE0020FEF770FE0D
:104600003620FEF76DFE0020FEF76AFE3220FEF730
:1046100067FE0020FEF764FE2F20FEF761FE0020FB
:10462000FEF75EFE2C20FEF75BFE0020FEF758FE34
:104630002920FEF755FE0020FEF752FE2620FEF749
:104640004FFE0020FEF74CFE2420FEF749FE00201E
:10465000FEF746FE2420FEF743FE0020FEF740FE54
:104660002320FEF73DFE0020FEF73AFE3C20FEF739
:1046700037FE0020FEF734FE3620FEF731FE002024
:10468000FEF72EFE3220FEF72BFE0020FEF728FE5E
:104690002F20FEF725FE0020FEF722FE2C20FEF73D
:1046A0001FFE0020FEF71CFE2920FEF719FE002049
:1046B000FEF716FE2620FEF713FE0020FEF710FE82
:1046C0002420FEF70DFE0020FEF70AFE2420FEF750
:1046D00007FE0020FEF704FE2320FEF701FE002067
:1046E000FEF7FEFDC420FEF7E7FD6220FEF7F8FDB1
:1046F0000020FEF7F5FD0520FEF7F2FD0020FEF795
:10470000EFFD8420FEF7ECFD0020FEF7E9FDF02030
:10471000FEF7E6FD0020FEF7E3FD1820FEF7E0FDC2
:104720000020FEF7DDFDA420FEF7DAFD0020FEF7F5
:10473000D7FD1820FEF7D4FD0020FEF7D1FD502054
:10474000FEF7CEFD0020FEF7CBFD0C20FEF7C8FDE6
:104750000020FEF7C5FD1720FEF7C2FD0020FEF782
:10476000BFFD9520FEF7BCFD0020FEF7B9FDF3204C
:10477000FEF7B6FD0020FEF7B3FDE620FEF7B0FD24
:104780000020FEF7ADFDC520FEF796FD3220FEF7B6
:10479000A7FD0020FEF7A4FD4420FEF7A1FD0020A8
:1047A000FEF79EFD6520FEF79BFD0020FEF798FDBD
:1047B0007620FEF795FD0020FEF792FD8820FEF79B
:1047C0008FFD0020FEF78CFDC620FEF775FD202032
:1047D000FEF786FD0020FEF783FD1720FEF780FD23
:1047E0000020FEF77DFD0120FEF77AFD0020FEF798
:1047F00077FDC720FEF760FD0020FEF771FD002069
:10480000FEF76EFD0020FEF76BFD0020FEF768FD51
:10481000C820FEF751FD0020FEF762FD0020FEF7E4
:104820005FFD0020FEF75CFD0020FEF759FDC9206A
:10483000FEF742FD0020FEF753FD0020FEF750FD7D
:104840000020FEF74DFD0020FEF74AFD0020FEF798
:1048500047FD0020FEF744FD0020FEF741FD00204B
:10486000FEF73EFD0020FEF73BFD0020FEF738FD81
:104870000020FEF735FD0020FEF732FD0020FEF798
:104880002FFD0020FEF72CFD0020FEF729FD002063
:10489000FEF726FDE020FEF70FFD1620FEF720FDB7
:1048A0000020FEF71DFD1C20FEF71AFD0020FEF77C
:1048B00017FD2120FEF714FD0020FEF711FD362024
:1048C000FEF70EFD0020FEF70BFD4620FEF708FD6B
:1048D0000020FEF705FD5220FEF702FD0020FEF746
:1048E000FFFC6420FEF7FCFC0020FEF7F9FC7A20B8
:1048F000FEF7F6FC0020FEF7F3FC8B20FEF7F0FC41
:104900000020FEF7EDFC9920FEF7EAFC0020FEF700
:10491000E7FCA820FEF7E4FC0020FEF7E1FCB9204C
:10492000FEF7DEFC0020FEF7DBFCC420FEF7D8FC1F
:104930000020FEF7D5FCCA20FEF7D2FC0020FEF7CF
:10494000CFFCD220FEF7CCFC0020FEF7C9FCD9201A
:10495000FEF7C6FC0020FEF7C3FCE020FEF7C0FC1B
:104960000020FEF7BDFCF320FEF7BAFC0020FEF7A6
:10497000B7FCE120FEF7A0FC1620FEF7B1FC0020FA
:10498000FEF7AEFC1C20FEF7ABFC0020FEF7A8FCF7
:104990002220FEF7A5FC0020FEF7A2FC3620FEF741
:1049A0009FFC0020FEF79CFC4520FEF799FC0020B0
:1049B000FEF796FC5220FEF793FC0020FEF790FCD9
:1049C0006420FEF78DFC0020FEF78AFC7A20FEF7BB
:1049D00087FC0020FEF784FC8B20FEF781FC002082
:1049E000FEF77EFC9920FEF77BFC0020FEF778FCAA
:1049F000A820FEF775FC0020FEF772FCB920FEF738
:104A00006FFC0020FEF76CFCC420FEF769FC002060
:104A1000FEF766FCCA20FEF763FC0020FEF760FC90
:104A2000D220FEF75DFC0020FEF75AFCD820FEF7EE
:104A300057FC0020FEF754FCE020FEF751FC00205C
:104A4000FEF74EFCF320FEF74BFC0020FEF748FC7F
:104A5000E220FEF731FC0520FEF742FC0020FEF7C5
:104A60003FFC0B20FEF73CFC0020FEF739FC1B202E
:104A7000FEF736FC0020FEF733FC3420FEF730FC56
:104A80000020FEF72DFC4420FEF72AFC0020FEF754
:104A900027FC4F20FEF724FC0020FEF721FC6120BC
:104AA000FEF71EFC0020FEF71BFC7920FEF718FC29
:104AB0000020FEF715FC8820FEF712FC0020FEF710
:104AC0000FFC9720FEF70CFC0020FEF709FCA62047
:104AD000FEF706FC0020FEF703FCB720FEF700FC03
:104AE0000020FEF7FDFBC220FEF7FAFB0020FEF7D8
:104AF000F7FBC720FEF7F4FB0020FEF7F1FBD12007
:104B0000FEF7EEFB0020FEF7EBFBD620FEF7E8FBFE
:104B10000020FEF7E5FBDD20FEF7E2FB0020FEF7BC
:104B2000DFFBF320FEF7DCFB0020FEF7D9FBE320E0
:104B3000FEF7C2FB0520FEF7D3FB0020FEF7D0FBFB
:104B40000A20FEF7CDFB0020FEF7CAFB1C20FEF773
:104B5000C7FB0020FEF7C4FB3320FEF7C1FB00209B
:104B6000FEF7BEFB4420FEF7BBFB0020FEF7B8FBC0
:104B70005020FEF7B5FB0020FEF7B2FB6220FEF7E7
:104B8000AFFB0020FEF7ACFB7820FEF7A9FB00206E
:104B9000FEF7A6FB8820FEF7A3FB0020FEF7A0FB94
:104BA0009720FEF79DFB0020FEF79AFBA620FEF75C
:104BB00097FB0020FEF794FBB720FEF791FB002047
:104BC000FEF78EFBC220FEF78BFB0020FEF788FB72
:104BD000C720FEF785FB0020FEF782FBD120FEF701
:104BE0007FFB0020FEF77CFBD520FEF779FB002041
:104BF000FEF776FBDD20FEF773FB0020FEF770FB6F
:104C0000F320FEF76DFB0020FEF76AFBE420FEF7C1
:104C100053FB0120FEF764FB0020FEF761FB01203F
:104C2000FEF75EFB0020FEF75BFB0220FEF758FB61
:104C30000020FEF755FB2A20FEF752FB0020FEF76E
:104C40004FFB3C20FEF74CFB0020FEF749FB4B20BE
:104C5000FEF746FB0020FEF743FB5D20FEF740FB1E
:104C60000020FEF73DFB7420FEF73AFB0020FEF724
:104C700037FB8420FEF734FB0020FEF731FB932046
:104C8000FEF72EFB0020FEF72BFBA220FEF728FBF1
:104C90000020FEF725FBB320FEF722FB0020FEF7E5
:104CA0001FFBBE20FEF71CFB0020FEF719FBC420F3
:104CB000FEF716FB0020FEF713FBCD20FEF710FBDE
:104CC0000020FEF70DFBD320FEF70AFB0020FEF7C5
:104CD00007FBDD20FEF704FB0020FEF701FBF320BD
:104CE000FEF7FEFA0020FEF7FBFAE520FEF7E4FAF5
:104CF0000020FEF7F5FA0020FEF7F2FA0020FEF79A
:104D0000EFFA0020FEF7ECFA0220FEF7E9FA0020A5
:104D1000FEF7E6FA2920FEF7E3FA0020FEF7E0FAB4
:104D20003C20FEF7DDFA0020FEF7DAFA4B20FEF712
:104D3000D7FA0020FEF7D4FA5D20FEF7D1FA002062
:104D4000FEF7CEFA7420FEF7CBFA0020FEF7C8FA81
:104D50008420FEF7C5FA0020FEF7C2FA9320FEF782
:104D6000BFFA0020FEF7BCFAA220FEF7B9FA002035
:104D7000FEF7B6FAB320FEF7B3FA0020FEF7B0FA5A
:104D8000BE20FEF7ADFA0020FEF7AAFAC420FEF717
:104D9000A7FA0020FEF7A4FACD20FEF7A1FA002022
:104DA000FEF79EFAD320FEF79BFA0020FEF798FA52
:104DB000DC20FEF795FA0020FEF792FAF320FEF7CA
:104DC0008FFA0020FEF78CFAE620FEF775FA112024
:104DD000FEF786FA0020FEF783FA3420FEF780FA09
:104DE0000020FEF77DFA5620FEF77AFA0020FEF743
:104DF00077FA7620FEF774FA0020FEF771FA772032
:104E0000FEF76EFA0020FEF76BFA6620FEF768FAEE
:104E10000020FEF765FA8820FEF762FA0020FEF710
:104E20005FFA9920FEF75CFA0020FEF759FABB20E2
:104E3000FEF756FA0020FEF753FA9920FEF750FAD3
:104E40000020FEF74DFA6620FEF74AFA0020FEF732
:104E500047FA5520FEF744FA0020FEF741FA5520A4
:104E6000FEF73EFA0020FEF73BFA4520FEF738FA3F
:104E70000020FEF735FA4320FEF732FA0020FEF755
:104E80002FFA4420FEF72CFA0020FEF729FAE7203B
:104E9000FEF712FA3220FEF723FA0020FEF720FA7E
:104EA0005520FEF71DFA0020FEF71AFA7620FEF7CD
:104EB00017FA0020FEF714FA6620FEF711FA002018
:104EC000FEF70EFA6720FEF70BFA0020FEF708FA4D
:104ED0006720FEF705FA0020FEF702FA8720FEF7AA
:104EE000FFF90020FEF7FCF99920FEF7F9F9002000
:104EF000FEF7F6F9BB20FEF7F3F90020FEF7F0F914
:104F00009920FEF7EDF90020FEF7EAF97720FEF789
:104F1000E7F90020FEF7E4F94420FEF7E1F900206C
:104F2000FEF7DEF95620FEF7DBF90020FEF7D8F990
:104F30002320FEF7D5F90020FEF7D2F93320FEF743
:104F4000CFF90020FEF7CCF94520FEF7C9F9002083
:104F5000FEF7C6F9E820FEF7AFF90020FEF7C0F92A
:104F60000020FEF7BDF99920FEF7BAF90020FEF700
:104F7000B7F98720FEF7B4F90020FEF7B1F98820D1
:104F8000FEF7AEF90020FEF7ABF97720FEF7A8F99F
:104F90000020FEF7A5F96620FEF7A2F90020FEF733
:104FA0009FF98820FEF79CF90020FEF799F9AA20C6
:104FB000FEF796F90020FEF793F9BB20FEF790F973
:104FC0000020FEF78DF99920FEF78AF90020FEF700
:104FD00087F96620FEF784F90020FEF781F9552055
:104FE000FEF77EF90020FEF77BF95520FEF778F9F1
:104FF0000020FEF775F94420FEF772F90020FEF755
:105000006FF94420FEF76CF90020FEF769F955208E
:10501000FEF766F90020FEF763F9E920FEF74CF988
:10502000AA20FEF75DF90020FEF75AF90020FEF7EE
:1050300057F90020FEF754F90020FEF73DF9AA20A9
:10504000FEF74EF9CF20FEF737F90020FEF748F9BA
:105050000020FEF745F90020FEF742F90020FEF798
:105060003FF90020FEF73CF90020FEF739F9002057
:10507000FEF736F90020FEF733F90020FEF730F98D
:105080000020FEF72DF90020FEF72AF90020FEF798
:1050900027F90020FEF724F90020FEF721F900206F
:1050A000FEF71EF90020FEF71BF90020FEF718F9A5
:1050B000F020FEF701F90020FEF712F95020FEF76C
:1050C0000FF90020FEF70CF90020FEF709F9002087
:1050D000FEF706F9F320FEF7EFF80020FEF700F9DF
:1050E000F920FEF7E9F80620FEF7FAF81020FEF79F
:1050F000F7F82920FEF7F4F80020FEF7F1F83A203F
:10510000FEF7DAF85520FEF7EBF81120FEF7D4F899
:105110006420FCF7A3FD2920FEF7CEF83520FEF72A
:10512000CBF80020FEF7DCF85120FEF7C5F8FF2091
:10513000FEF7D6F85320FEF7BFF82C20FEF7D0F884
:105140005520FEF7B9F88220FEF7CAF82C20FEF7AA
:10515000B3F801F046B8044B9B8845F210529342D5
:1051600040F0818702E000BF4001002055214FF44C
:105170007040FEF7DBF8AA214FF20100FEF7D6F8E7
:1051800052214FF20200FEF7D1F808214FF203003E
:10519000FEF7CCF801214FF20400FEF7C7F80D210D
:1051A0004FF43040FEF7C2F80D214BF20100FEF73C
:1051B000BDF80D214BF20200FEF7B8F834214FF490
:1051C0003640FEF7B3F834214BF20160FEF7AEF83B
:1051D00034214BF20260FEF7A9F80D214FF4314063
:1051E000FEF7A4F80D214BF20110FEF79FF80D21F8
:1051F0004BF20210FEF79AF834214FF43740FEF7D5
:1052000095F834214BF20170FEF790F834214BF2FF
:105210000270FEF78BF800214FF43240FEF786F85B
:1052200000214BF20120FEF781F800214BF2022011
:10523000FEF77CF824214FF43840FEF777F824215C
:105240004BF60100FEF772F824214BF60200FEF740
:105250006DF801214FF43F40FEF768F80F214FF43D
:105260003340FEF763F80F214BF20130FEF75EF892
:105270000F214BF20230FEF759F834214FF4394038
:10528000FEF754F834214BF60110FEF74FF83421A5
:105290004BF60210FEF74AF808214FF43540FEF7AE
:1052A00045F808214BF20150FEF740F808214BF277
:1052B0000250FEF73BF803214FF44240FEF736F868
:1052C00024214FF43A40FEF731F824214BF6012017
:1052D000FEF72CF824214BF60220FEF727F80021D8
:1052E0004FF43C40FEF722F878214BF60140FEF7E0
:1052F0001DF800214BF60240FEF718F800214FF48C
:105300003D40FEF713F878214BF60150FEF70EF8FA
:1053100000214BF60250FEF709F800214FF43E4001
:10532000FEF704F864214BF60160FDF7FFFF002152
:105330004FF45140FDF7FAFF33214DF20110FDF714
:10534000F5FF00214DF20210FDF7F0FF34214DF280
:105350000310FDF7EBFF00214DF20410FDF7E6FF0F
:105360003A214DF20510FDF7E1FF00214DF2061044
:10537000FDF7DCFF4A214DF20710FDF7D7FF0021B2
:105380004DF20810FDF7D2FF5C214DF20910FDF738
:10539000CDFF00214DF20A10FDF7C8FF81214DF22B
:1053A0000B10FDF7C3FF00214DF20C10FDF7BEFFFF
:1053B000A6214DF20D10FDF7B9FF00214DF20E10A0
:1053C000FDF7B4FFE5214DF20F10FDF7AFFF01210E
:1053D0004DF21010FDF7AAFF13214DF21110FDF749
:1053E000A5FF01214DF21210FDF7A0FF54214DF24F
:1053F0001310FDF79BFF01214DF21410FDF796FFEE
:1054000082214DF21510FDF791FF01214DF216108A
:10541000FDF78CFFCA214DF21710FDF787FF02211F
:105420004DF21810FDF782FF00214DF21910FDF723
:105430007DFF02214DF21A10FDF778FF01214DF298
:105440001B10FDF773FF02214DF21C10FDF76EFFDC
:1054500034214DF21D10FDF769FF02214DF21E109F
:10546000FDF764FF67214DF21F10FDF75FFF02217A
:105470004DF22010FDF75AFF84214DF22110FDF767
:1054800055FF02214DF22210FDF750FFA4214DF2ED
:105490002310FDF74BFF02214DF22410FDF746FFCC
:1054A000B7214DF22510FDF741FF02214DF22610E4
:1054B000FDF73CFFCF214DF22710FDF737FF02210A
:1054C0004DF22810FDF732FFDE214DF22910FDF7D5
:1054D0002DFF02214DF22A10FDF728FFF2214DF297
:1054E0002B10FDF723FF02214DF22C10FDF71EFFBC
:1054F000FE214DF22D10FDF719FF03214DF22E1064
:10550000FDF714FF10214DF22F10FDF70FFF0321BF
:105510004DF23010FDF70AFF33214DF23110FDF747
:1055200005FF03214DF23210FDF700FF6D214DF212
:105530003310FDF7FBFE00214FF45240FDF7F6FE5D
:1055400033214DF20120FDF7F1FE00214DF2022042
:10555000FDF7ECFE34214DF20320FDF7E7FE0021BC
:105560004DF20420FDF7E2FE3A214DF20520FDF751
:10557000DDFE00214DF20620FDF7D8FE4A214DF256
:105580000720FDF7D3FE00214DF20820FDF7CEFEE7
:105590005C214DF20920FDF7C9FE00214DF20A20E1
:1055A000FDF7C4FE81214DF20B20FDF7BFFE002167
:1055B0004DF20C20FDF7BAFEA6214DF20D20FDF7AD
:1055C000B5FE00214DF20E20FDF7B0FEE5214DF2B3
:1055D0000F20FDF7ABFE01214DF21020FDF7A6FED6
:1055E00013214DF21120FDF7A1FE01214DF21220F1
:1055F000FDF79CFE54214DF21320FDF797FE01218B
:105600004DF21420FDF792FE82214DF21520FDF798
:105610008DFE01214DF21620FDF788FECA214DF2C4
:105620001720FDF783FE02214DF21820FDF77EFEC4
:1056300000214DF21920FDF779FE02214DF21A20CA
:10564000FDF774FE01214DF21B20FDF76FFE0221D4
:105650004DF21C20FDF76AFE34214DF21D20FDF7AE
:1056600065FE02214DF21E20FDF760FE67214DF21E
:105670001F20FDF75BFE02214DF22020FDF756FEB4
:1056800084214DF22120FDF751FE02214DF222200E
:10569000FDF74CFEA4214DF22320FDF747FE022129
:1056A0004DF22420FDF742FEB7214DF22520FDF7F3
:1056B0003DFE02214DF22620FDF738FECF214DF2AE
:1056C0002720FDF733FE02214DF22820FDF72EFEA4
:1056D000DE214DF22920FDF729FE02214DF22A207C
:1056E000FDF724FEF2214DF22B20FDF71FFE0221D3
:1056F0004DF22C20FDF71AFEFE214DF22D20FDF774
:1057000015FE03214DF22E20FDF710FE10214DF263
:105710002F20FDF70BFE03214DF23020FDF706FE92
:1057200033214DF23120FDF701FE03214DF23220ED
:10573000FDF7FCFD6D214DF23320FDF7F7FD002153
:105740004FF45340FDF7F2FD33214DF20130FDF7E8
:10575000EDFD00214DF20230FDF7E8FD34214DF260
:105760000330FDF7E3FD00214DF20430FDF7DEFDCF
:105770003A214DF20530FDF7D9FD00214DF20630FA
:10578000FDF7D4FD4A214DF20730FDF7CFFD002192
:105790004DF20830FDF7CAFD5C214DF20930FDF7EE
:1057A000C5FD00214DF20A30FDF7C0FD81214DF20B
:1057B0000B30FDF7BBFD00214DF20C30FDF7B6FDBF
:1057C000A6214DF20D30FDF7B1FD00214DF20E3056
:1057D000FDF7ACFDE5214DF20F30FDF7A7FD0121EE
:1057E0004DF21030FDF7A2FD13214DF21130FDF7FF
:1057F0009DFD01214DF21230FDF798FD54214DF22F
:105800001330FDF793FD01214DF21430FDF78EFDAD
:1058100082214DF21530FDF789FD01214DF2163040
:10582000FDF784FDCA214DF21730FDF77FFD0221FF
:105830004DF21830FDF77AFD00214DF21930FDF7D9
:1058400075FD02214DF21A30FDF770FD01214DF278
:105850001B30FDF76BFD02214DF21C30FDF766FD9C
:1058600034214DF21D30FDF761FD02214DF21E3055
:10587000FDF75CFD67214DF21F30FDF757FD02215A
:105880004DF22030FDF752FD84214DF22130FDF71D
:105890004DFD02214DF22230FDF748FDA4214DF2CD
:1058A0002330FDF743FD02214DF22430FDF73EFD8C
:1058B000B7214DF22530FDF739FD02214DF226309A
:1058C000FDF734FDCF214DF22730FDF72FFD0221EA
:1058D0004DF22830FDF72AFDDE214DF22930FDF78B
:1058E00025FD02214DF22A30FDF720FDF2214DF277
:1058F0002B30FDF71BFD02214DF22C30FDF716FD7C
:10590000FE214DF22D30FDF711FD03214DF22E3019
:10591000FDF70CFD10214DF22F30FDF707FD03219F
:105920004DF23030FDF702FD33214DF23130FDF7FD
:10593000FDFC03214DF23230FDF7F8FC6D214DF2F4
:105940003330FDF7F3FC00214FF45440FDF7EEFC3B
:1059500033214DF20140FDF7E9FC00214DF20240F8
:10596000FDF7E4FC34214DF20340FDF7DFFC00219C
:105970004DF20440FDF7DAFC3A214DF20540FDF707
:10598000D5FC00214DF20640FDF7D0FC4A214DF236
:105990000740FDF7CBFC00214DF20840FDF7C6FCA7
:1059A0005C214DF20940FDF7C1FC00214DF20A4097
:1059B000FDF7BCFC81214DF20B40FDF7B7FC002147
:1059C0004DF20C40FDF7B2FCA6214DF20D40FDF763
:1059D000ADFC00214DF20E40FDF7A8FCE5214DF293
:1059E0000F40FDF7A3FC01214DF21040FDF79EFC96
:1059F00013214DF21140FDF799FC01214DF21240A7
:105A0000FDF794FC54214DF21340FDF78FFC01216A
:105A10004DF21440FDF78AFC82214DF21540FDF74E
:105A200085FC01214DF21640FDF780FCCA214DF2A4
:105A30001740FDF77BFC02214DF21840FDF776FC84
:105A400000214DF21940FDF771FC02214DF21A4080
:105A5000FDF76CFC01214DF21B40FDF767FC0221B4
:105A60004DF21C40FDF762FC34214DF21D40FDF764
:105A70005DFC02214DF21E40FDF758FC67214DF2FE
:105A80001F40FDF753FC02214DF22040FDF74EFC74
:105A900084214DF22140FDF749FC02214DF22240C4
:105AA000FDF744FCA4214DF22340FDF73FFC022109
:105AB0004DF22440FDF73AFCB7214DF22540FDF7A9
:105AC00035FC02214DF22640FDF730FCCF214DF28E
:105AD0002740FDF72BFC02214DF22840FDF726FC64
