:020000040800F2
:1000000000000220192800082126000829260008DF
:1000100031260008392600084126000800000000AB
:100020000000000000000000000000004926000859
:100030005726000800000000652600087326000807
:10004000692800086928000869280008692800084C
:10005000692800086928000869280008692800083C
:10006000692800086928000869280008692800082C
:10007000692800086928000869280008692800081C
:10008000692800086928000869280008692800080C
:1000900069280008692800086928000869280008FC
:1000A00069280008692800086928000869280008EC
:1000B00069280008692800086928000869280008DC
:1000C00069280008692800086928000869280008CC
:1000D00069280008692800086928000869280008BC
:1000E00069280008692800086928000869280008AC
:1000F000692800086928000869280008692800089C
:10010000692800086928000869280008692800088B
:10011000692800086928000869280008692800087B
:10012000692800086928000869280008692800086B
:10013000692800086928000869280008692800085B
:10014000692800086928000869280008692800084B
:10015000692800086928000869280008692800083B
:10016000692800086928000869280008692800082B
:1001700069280008692800086928000800000000B4
:08018000692800086928000845
:1001900010B5054C237833B9044B13B10448AFF3C1
:1001A00000800123237010BD8400002000000000A7
:1001B000A86A000808B5034B1BB103490348AFF315
:1001C000008008BD0000000088000020A86A000828
:1001D00070B54FF0FF0C4CF4E06C1CEA11541DBFDD
:1001E0001CEA135594EA0C0F95EA0C0F00F0DEF8A8
:1001F0002C4481EA030621EA4C5123EA4C5350EA8D
:10020000013518BF52EA033541F4801143F48013DD
:1002100038D0A0FB02CE4FF00005E1FB02E506F06E
:100220000042E0FB03E54FF00006E1FB03569CF0C3
:10023000000F18BF4EF0010EA4F1FF04B6F5007FC9
:1002400064F5407404D25FEA4E0E6D4146EB06063B
:1002500042EAC62141EA55514FEAC52040EA5E50C4
:100260004FEACE2EB4F1FD0C88BFBCF5E06F1ED86E
:10027000BEF1004F08BF5FEA500E50F1000041EBA5
:10028000045170BD06F0004646EA010140EA020052
:1002900081EA0301B4EB5C04C2BFD4EB0C0541EA74
:1002A000045170BD41F480114FF0000E013C00F389
:1002B000AB8014F1360FDEBF002001F0004170BDAD
:1002C000C4F10004203C35DA0C341BDC04F11404C6
:1002D000C4F1200500FA05F320FA04F001FA05F252
:1002E00040EA020001F0004221F0004110EBD3701F
:1002F00021FA04F642EB06015EEA430E08BF20EA4B
:10030000D37070BDC4F10C04C4F1200500FA04F3ED
:1003100020FA05F001FA04F240EA020001F000417F
:1003200010EBD37041F100015EEA430E08BF20EAF2
:10033000D37070BDC4F1200500FA05F24EEA020E3A
:1003400020FA04F301FA05F243EA020321FA04F069
:1003500001F0004121FA04F220EA020000EBD37020
:100360005EEA430E08BF20EAD37070BD94F0000F20
:100370000FD101F00046400041EB010111F4801F54
:1003800008BF013CF7D041EA060195F0000F18BF05
:10039000704703F00046520043EB030313F4801F41
:1003A00008BF013DF7D043EA0603704794EA0C0FFB
:1003B0000CEA135518BF95EA0C0F0CD050EA410611
:1003C00018BF52EA4306D1D181EA030101F000418E
:1003D0004FF0000070BD50EA410606BF10461946B6
:1003E00052EA430619D094EA0C0F02D150EA0136C2
:1003F00013D195EA0C0F05D152EA03361CBF104603
:1004000019460AD181EA030101F0004141F0FE41A1
:1004100041F470014FF0000070BD41F0FE4141F425
:10042000780170BD81F0004102E000BF83F000431D
:1004300030B54FEA41044FEA430594EA050F08BF7F
:1004400090EA020F1FBF54EA000C55EA020C7FEA43
:10045000645C7FEA655C00F0E2804FEA5454D4EBC0
:100460005555B8BF6D420CDD2C4480EA020281EA8A
:10047000030382EA000083EA010180EA020281EAC2
:100480000303362D88BF30BD11F0004F4FEA013114
:100490004FF4801C4CEA113102D0404261EB410123
:1004A00013F0004F4FEA03334CEA133302D05242A9
:1004B00063EB430394EA050F00F0A780A4F1010465
:1004C000D5F1200E0DDB02FA0EFC22FA05F280189F
:1004D00041F1000103FA0EF2801843FA05F3594185
:1004E0000EE0A5F120050EF1200E012A03FA0EFC04
:1004F00028BF4CF0020C43FA05F3C01851EBE3712E
:1005000001F0004507D54FF0000EDCF1000C7EEB4A
:1005100000006EEB0101B1F5801F1BD3B1F5001F88
:100520000CD349085FEA30004FEA3C0C04F10104A7
:100530004FEA445212F5800F80F09A80BCF1004FD0
:1005400008BF5FEA500C50F1000041EB045141EA52
:10055000050130BD5FEA4C0C404141EB0101013C1B
:1005600028BFB1F5801FE9D291F0000F04BF01460A
:100570000020B1FA81F308BF2033A3F10B03B3F1DC
:1005800020020CDA0C3208DD02F1140CC2F10C026C
:1005900001FA0CF021FA02F10CE002F11402D8BFCA
:1005A000C2F1200C01FA02F120FA0CFCDCBF41EA96
:1005B0000C019040E41AA2BF01EB0451294330BD65
:1005C0006FEA04041F3C1CDA0C340EDC04F1140442
:1005D000C4F1200220FA04F001FA02F340EA030019
:1005E00021FA04F345EA030130BDC4F10C04C4F15F
:1005F000200220FA02F001FA04F340EA030029463F
:1006000030BD21FA04F0294630BD94F0000F83F488
:10061000801306BF81F480110134013D4EE77FEA6B
:10062000645C18BF7FEA655C29D094EA050F08BFB7
:1006300090EA020F05D054EA000C04BF1946104698
:1006400030BD91EA030F1EBF0021002030BD5FEADC
:10065000545C05D14000494128BF41F0004130BD04
:1006600014F580043CBF01F5801130BD01F0004558
:1006700045F0FE4141F470014FF0000030BD7FEACB
:10068000645C1ABF194610467FEA655C1CBF0B46C6
:10069000024650EA013406BF52EA033591EA030FDD
:1006A00041F4002130BD00BF90F0000F04BF0021D5
:1006B000704730B54FF4806404F132044FF0000508
:1006C0004FF0000150E700BF90F0000F04BF002181
:1006D000704730B54FF4806404F1320410F00045E7
:1006E00048BF40424FF000013EE700BF42004FEAE2
:1006F000E2014FEA31014FEA02701FBF12F07F435F
:1007000093F07F4F81F06051704732F07F4208BF15
:10071000704793F07F4F04BF41F40021704730B51C
:100720004FF4607401F0004521F000411CE700BF68
:1007300050EA010208BF704730B54FF000050AE0EB
:1007400050EA010208BF704730B511F0004502D5EC
:10075000404261EB41014FF4806404F132045FEAEE
:10076000915C3FF4D8AE4FF003025FEADC0C18BF97
:1007700003325FEADC0C18BF033202EBDC02C2F189
:10078000200300FA03FC20FA02F001FA03FE40EA1B
:100790000E0021FA02F11444BDE600BF4A0011D256
:1007A00012F5001211D20DD56FF47873B3EB6252CB
:1007B0000ED44FEAC12343F0004343EA505323FAD7
:1007C00002F070474FF00000704750EA013002D14C
:1007D0004FF0FF3070474FF00000704753B94AB9EF
:1007E000002908BF00281CBF4FF0FF314FF0FF3039
:1007F00000F088B9ADF1080C6DE904CE00F006F800
:10080000DDF804E0DDE9022304B070472DE9F0478C
:10081000089D0F4604468C46002B48D18A42164656
:1008200061D9B2FA82F34BB1C3F1200201FA03FCA1
:1008300020FA02F29E4042EA0C0C9C404FEA164E0F
:10084000B7B2BCFBFEF1220C0EFB11CC42EA0C420B
:1008500001FB07F0904209D9B21801F1FF3C80F08A
:10086000EE80904240F2EB8002393244121AA4B278
:10087000B2FBFEF00EFB102244EA024400FB07F735
:10088000A74209D9341900F1FF3280F0DA80A7427B
:1008900040F2D7803444023840EA0140E41B002192
:1008A0001DB1DC400023C5E90043BDE8F0878B4261
:1008B00006D90DB1C5E9000100210846BDE8F08761
:1008C000B3FA83F1002948D1BB4202D3824200F23D
:1008D0000781841A67EB030201209446002DE4D0BF
:1008E000C5E9004CE1E7002A00F09280B2FA82F3F9
:1008F000002B40F0A8808A1A4FEA164E1FFA86FC99
:100900000121200CB2FBFEF70EFB172240EA024247
:100910000CFB07F0904207D9B21807F1FF3802D25A
:10092000904200F2E2804746121AA4B2B2FBFEF0F7
:100930000EFB102244EA02440CFB00FCA44507D93C
:10094000341900F1FF3202D2A44500F2CB801046E8
:10095000A4EB0C0440EA0740A2E7C1F120068B405B
:1009600022FA06FC4CEA030C07FA01F420FA06F31B
:10097000F7404FEA1C49234300FA01F81FFA8CFEA6
:10098000B7FBF9F01C0C09FB107744EA074400FBA5
:100990000EF7A74202FA01F20AD91CEB040400F197
:1009A000FF3A80F09B80A74240F29880023864446E
:1009B000E41B9FB2B4FBF9F309FB134447EA044478
:1009C00003FB0EFEA64509D91CEB040403F1FF3717
:1009D00080F08280A6457FD9023B644443EA004010
:1009E000A4EB0E04A0FB02E7BC427346B94663D3F6
:1009F00060D05DB1B8EB030264EB090404FA06F6BB
:100A000022FA01F31E43CC40C5E9006400214CE703
:100A10006208480842EAC1710B0C43EA00438AB2FB
:100A200042EA0342B3FBF6F1E407B4463746B64662
:100A30001F23B0FBF6F0D21B41EA004161E761469B
:100A400014E7104628E7C3F1200120FA01F29E4086
:100A500027FA01F19F403A434FEA164E1FFA86FCEF
:100A6000B1FBFEF70EFB1710110C41EA004107FB2A
:100A70000CF8884504FA03F43AD9711807F1FF30ED
:100A800001D288451FD8A1EB0801B1FBFEF808FB95
:100A90000CF70EFB181192B242EA0142BA422FD271
:100AA000B21808F1FF31C6D2BA42C4D2A8F102018D
:100AB0003244C0E7F0459CD2BEEB020367EB0C0763
:100AC0000138B94695E7A6EB08084144B81EB1FBCA
:100AD000FEF808FB0CF7DCE73B467FE7504667E78C
:100AE0000846FBE63444023832E7023F32441BE753
:100AF000A1EB08013846B1FBFEF808FB0CF7C8E78C
:100B0000414698E7704700BF000000000000000069
:100B100001F0FF01102A2BDB10F0070F08D010F8AE
:100B2000013B013A8B422DD010F0070F42B3F6D1B2
:100B3000F0B441EA012141EA014122F007047FF0CB
:100B400000070023F0E80256083C85EA010586EA22
:100B5000010685FA47F5A3FA87F586FA47F6A5FA5E
:100B600087F68EB9EED1F0BC01F0FF0102F007026A
:100B700032B110F8013B013A83EA010313B1F8D115
:100B80000020704701387047002D06BF35460338F6
:100B9000073815F0010F07D1013015F4807F02BF2F
:100BA000013015F4C03F0130F0BC0138704700BF80
:100BB00080B400AF064BD3F88830054A43F4700385
:100BC000C2F8883000BFBD465DF8047B704700BFA7
:100BD00000ED00E080B582B000AF78607B68002B4C
:100BE00001D1012314E07B681B79DBB2002B05D116
:100BF0007B6800225A71786801F0F4FB7B6802225E
:100C00001A717B6800221A617B6801221A71002325
:100C100018460837BD4680BD80B483B000AF786009
:100C200039607B68002B01D1012346E07B685B794A
:100C3000012B01D1022340E07B6801225A717B68BD
:100C400002221A717B681B6819683B6803F0100365
:100C500001229A407B681B680A431A603B68002B9C
:100C60000FD17B681B681B6803F03C033C2B1DD134
:100C70007B681B685A687B681B6842F001025A60F7
:100C800014E07B681B681B6803F470123B6803F078
:100C900010033C2101FA03F39A4207D17B681B68D9
:100CA0005A687B681B6842F002025A607B68012226
:100CB0001A717B6800225A71002318460C37BD4612
:100CC0005DF8047B704780B487B000AFF860B9600E
:100CD0007A603B6000237B61FB68002B01D101231C
:100CE00015E0FB681B687B61BB68002B05D17A6946
:100CF0007B68134408337B6104E07A697B681344A2
:100D000014337B617B691A463B68136000231846E5
:100D10001C37BD465DF8047B704780B489B000AFD6
:100D2000F860B9607A600023FB77FB68002B02D083
:100D3000BB68002B01D1012342E0FB685B79012BEA
:100D400001D102233CE0FB6801225A71FB680222B8
:100D50001A71FB681B681B68BB617B6803F010039A
:100D600040F6FE7202FA03F3DB43BA691340BB613B
:100D7000BB681A68BB685B6813437B617B6803F0E0
:100D800010037A6902FA03F3BA691343BB61FB6883
:100D90001B68BA691A60FB681B6819687B6803F0F6
:100DA0001003C02202FA03F3DA43FB681B680A400F
:100DB0001A60FB6801221A71FB6800225A71FB7FDE
:100DC00018462437BD465DF8047B704780B586B071
:100DD00000AF78607B68002B01D1012367E27B685C
:100DE0001B6803F00103002B75D0884B9B6803F050
:100DF0000C03042B0CD0854B9B6803F00C03082BD1
:100E000012D1824B5B6803F48003B3F5800F0BD1E2
:100E10007E4B1B6803F40033002B5BD07B685B6860
:100E2000002B57D1012342E27B685B68B3F5803F1A
:100E300006D1764B1B68754A43F4803313601DE07E
:100E40007B685B68B3F5A02F0CD1704B1B686F4AB1
:100E500043F4802313606D4B1B686C4A43F480336A
:100E600013600BE0694B1B68684A23F480331360FE
:100E7000664B1B68654A23F4802313607B685B68BC
:100E8000002B13D000F0DEFE386108E000F0DAFE3F
:100E900002463B69D31A642B01D9032307E25B4B5B
:100EA0001B6803F40033002BF0D014E000F0CAFEFE
:100EB000386108E000F0C6FE02463B69D31A642B95
:100EC00001D90323F3E1514B1B6803F40033002BDA
:100ED000F0D100E000BF7B681B6803F00203002B29
:100EE00063D04A4B9B6803F00C03002B0BD0474B9D
:100EF0009B6803F00C03082B1CD1444B5B6803F484
:100F00008003002B16D1414B1B6803F00203002B1A
:100F100005D07B68DB68012B01D00123C7E13B4B87
:100F20001B6823F0F8027B681B69DB003749134319
:100F30000B603AE07B68DB68002B20D0344B012249
:100F40001A6000F07FFE386108E000F07BFE024688
:100F50003B69D31A022B01D90323A8E12B4B1B6851
:100F600003F00203002BF0D0284B1B6823F0F8029B
:100F70007B681B69DB00254913430B6015E0244B9C
:100F800000221A6000F05EFE386108E000F05AFEB0
:100F900002463B69D31A022B01D9032387E11B4B7D
:100FA0001B6803F00203002BF0D17B681B6803F081
:100FB0000803002B36D07B685B69002B16D0154BDD
:100FC00001221A6000F03EFE386108E000F03AFEAF
:100FD00002463B69D31A022B01D9032367E10B4B6D
:100FE0005B6F03F00203002BF0D01BE0094B0022E3
:100FF0001A6000F027FE38610EE000F023FE024682
:101000003B69D31A022B07D9032350E10038024071
:1010100000004742800E4742884B5B6F03F002039B
:10102000002BEAD17B681B6803F00403002B00F05F
:1010300097800023FB75814B1B6C03F08053002BC2
:101040000FD10023BB607D4B1B6C7C4A43F0805367
:1010500013647A4B1B6C03F08053BB60BB680123A5
:10106000FB75774B1B6803F48073002B18D1744B0E
:101070001B68734A43F48073136000F0E3FD38612A
:1010800008E000F0DFFD02463B69D31A022B01D9CC
:1010900003230CE16A4B1B6803F48073002BF0D030
:1010A0007B689B68012B06D1644B1B6F634A43F03E
:1010B000010313671CE07B689B68052B0CD15F4B19
:1010C0001B6F5E4A43F0040313675C4B1B6F5B4A64
:1010D00043F0010313670BE0584B1B6F574A23F093
:1010E00001031367554B1B6F544A23F00403136726
:1010F0007B689B68002B15D000F0A4FD38610AE0E6
:1011000000F0A0FD02463B69D31A41F288329342B7
:1011100001D90323CBE0494B1B6F03F00203002BE3
:10112000EED014E000F08EFD38610AE000F08AFD98
:1011300002463B69D31A41F28832934201D9032314
:10114000B5E03E4B1B6F03F00203002BEED1FB7D9D
:10115000012B05D1394B1B6C384A23F080531364A3
:101160007B689B69002B00F0A180344B9B6803F0E7
:101170000C03082B5CD07B689B69022B41D1314B5F
:1011800000221A6000F05EFD386108E000F05AFDB0
:1011900002463B69D31A022B01D9032387E0274B70
:1011A0001B6803F00073002BF0D17B68DA697B6861
:1011B0001B6A1A437B685B6A9B011A437B689B6AC4
:1011C0005B08013B1B041A437B68DB6A1B061B4957
:1011D00013434B601B4B01221A6000F033FD386152
:1011E00008E000F02FFD02463B69D31A022B01D91B
:1011F00003235CE0114B1B6803F00073002BF0D05D
:1012000054E0104B00221A6000F01CFD386108E029
:1012100000F018FD02463B69D31A022B01D90323C3
:1012200045E0064B1B6803F00073002BF0D13DE056
:101230007B689B69012B07D1012338E0003802400D
:1012400000700040600047421B4B5B68FB607B689E
:101250009B69012B28D0FB6803F480027B68DB6963
:101260009A4221D1FB6803F03F027B681B6A9A42D5
:101270001AD1FA6847F6C07313407A68526A92012D
:10128000934211D1FB6803F440327B689B6A5B0890
:10129000013B1B049A4207D1FB6803F070627B6834
:1012A000DB6A1B069A4201D0012300E000231846A6
:1012B0001837BD4680BD00BF0038024080B584B0FD
:1012C00000AF786039607B68002B01D10123CCE04E
:1012D000684B1B6803F007033A689A420CD9654BC8
:1012E0003A68D2B21A70634B1B6803F007033A687E
:1012F0009A4201D00123B8E07B681B6803F0020327
:10130000002B20D07B681B6803F00403002B05D062
:10131000594B9B68584A43F4E05393607B681B68C1
:1013200003F00803002B05D0534B9B68524A43F44B
:1013300060439360504B9B6823F0F0027B689B688E
:101340004D4913438B607B681B6803F00103002B3E
:1013500044D07B685B68012B07D1474B1B6803F4C3
:101360000033002B19D101237FE07B685B68022BDF
:1013700003D07B685B68032B07D13F4B1B6803F0EE
:101380000073002B09D101236FE03B4B1B6803F076
:101390000203002B01D1012367E0374B9B6823F048
:1013A00003027B685B68344913438B6000F04AFC9E
:1013B000F8600AE000F046FC0246FB68D31A41F2EE
:1013C0008832934201D903234FE02B4B9B6803F0F3
:1013D0000C027B685B689B009A42EBD1254B1B6833
:1013E00003F007033A689A420CD2224B3A68D2B211
:1013F0001A70204B1B6803F007033A689A4201D029
:10140000012332E07B681B6803F00403002B08D043
:10141000194B9B6823F4E0527B68DB681649134341
:101420008B607B681B6803F00803002B09D0124B0C
:101430009B6823F460427B681B69DB000E49134301
:101440008B6000F021F802460B4B9B681B0903F0F0
:101450000F030A49CB5C22FA03F3094A1360094BD4
:101460001B68184600F0AAFB002318461037BD463B
:1014700080BD00BF003C024000380240306B0008D5
:1014800000000020040000202DE9B04F90B000AF14
:1014900000237B630023FB6300233B630023BB63C8
:1014A000584B9B6803F00C03082B0DD0082B00F25F
:1014B000A080002B02D0042B03D09AE0524BBB63D8
:1014C0009AE0524BBB6397E04E4B5B6803F03F03DF
:1014D0007B634C4B5B6803F48003002B27D0494BA4
:1014E0005B689B0900223B627A623B6AC3F3080097
:1014F0000021464B03FB01F2002300FB03F31344DE
:10150000424AA0FB0221F962BA62FA6A1344FB6202
:101510007B6B0022BB61FA61D7E90623D7E90A0198
:10152000FFF75CF902460B461346FB6353E0354B6D
:101530005B689B0900223B617A613B69C3F3080A3F
:101540004FF0000B52465B464FF000004FF0000199
:10155000590141EAD261500102460B46B2EB0A083A
:1015600063EB0B094FF000024FF000034FEA8913C1
:1015700043EA98634FEA8812B2EB080463EB09056B
:101580004FF000024FF00003EB0043EA5473E20017
:1015900014461D4614EB0A033B6045EB0B037B60CE
:1015A0004FF000024FF00003D7E9004529468B02B7
:1015B000214643EA915321468A02104619467B6B25
:1015C0000022BB60FA60D7E90223FFF707F9024661
:1015D0000B461346FB630B4B5B681B0C03F00303CA
:1015E00001335B003B63FA6B3B6BB2FBF3F3BB6312
:1015F00002E0054BBB6300BFBB6B18464037BD46DE
:10160000BDE8B08F003802400024F40040787D012E
:1016100080B489B000AF7860396000237B6100231B
:101620003B610023BB610023FB616BE10122FB698D
:1016300002FA03F37B613B681B687A6913403B61E4
:101640003A697B699A4240F05A813B685B6803F0D3
:101650000303012B05D03B685B6803F00303022BF7
:1016600030D17B689B68BB61FB695B00032202FA97
:1016700003F3DB43BA691340BB613B68DA68FB697B
:101680005B0002FA03F3BA691343BB617B68BA6972
:101690009A607B685B68BB610122FB6902FA03F315
:1016A000DB43BA691340BB613B685B681B0903F00D
:1016B0000102FB6902FA03F3BA691343BB617B6859
:1016C000BA695A603B685B6803F00303032B17D0C9
:1016D0007B68DB68BB61FB695B00032202FA03F3F2
:1016E000DB43BA691340BB613B689A68FB695B00E6
:1016F00002FA03F3BA691343BB617B68BA69DA6023
:101700003B685B6803F00303022B23D1FB69DA0813
:101710007B68083253F82230BB61FB6903F0070392
:101720009B000F2202FA03F3DB43BA691340BB614B
:101730003B681A69FB6903F007039B0002FA03F395
:10174000BA691343BB61FB69DA087B680832B9697F
:1017500043F822107B681B68BB61FB695B000322B6
:1017600002FA03F3DB43BA691340BB613B685B6871
:1017700003F00302FB695B0002FA03F3BA69134347
:10178000BB617B68BA691A603B685B6803F44033ED
:10179000002B00F0B4800023FB60604B5B6C5F4A61
:1017A00043F4804353645D4B5B6C03F48043FB6004
:1017B000FB685B4AFB699B08023352F82330BB612C
:1017C000FB6903F003039B000F2202FA03F3DB43E0
:1017D000BA691340BB617B68524A93422BD07B6845
:1017E000514A934225D07B68504A93421FD07B6870
:1017F0004F4A934219D07B684E4A934213D07B687C
:101800004D4A93420DD07B684C4A934207D07B6887
:101810004B4A934201D107230EE008230CE0062334
:101820000AE0052308E0042306E0032304E0022382
:1018300002E0012300E00023FA6902F003029200B3
:101840009340BA691343BB613549FB699B08023376
:10185000BA6941F823203B4B9B68BB613B69DB4382
:10186000BA691340BB613B685B6803F48013002BCB
:1018700003D0BA693B691343BB61324ABB699360C9
:10188000304BDB68BB613B69DB43BA691340BB612A
:101890003B685B6803F40013002B03D0BA693B6913
:1018A0001343BB61274ABB69D360264B5B68BB61AE
:1018B0003B69DB43BA691340BB613B685B6803F477
:1018C0000033002B03D0BA693B691343BB611D4A47
:1018D000BB6953601B4B1B68BB613B69DB43BA6947
:1018E0001340BB613B685B6803F48033002B03D07B
:1018F000BA693B691343BB61124ABB691360FB6958
:101900000133FB61FB690F2B7FF690AE00BF00BF78
:101910002437BD465DF8047B704700BF00380240A5
:10192000003801400000024000040240000802406C
:10193000000C024000100240001402400018024057
:10194000001C0240003C014080B485B000AF7860CC
:101950000B467B807B681A697B881340002B02D082
:101960000123FB7301E00023FB73FB7B1846143754
:10197000BD465DF8047B704780B483B000AF7860EB
:101980000B467B8013467B707B78002B03D07A88D4
:101990007B689A6103E07B881A047B689A6100BFC8
:1019A0000C37BD465DF8047B7047000080B485B0FD
:1019B00000AF78607B6803F00703FB600C4BDB68CB
:1019C000BB60BA684FF6FF031340BB60FB681A02A6
:1019D000BB68134343F0BF6343F40033BB60044A66
:1019E000BB68D36000BF1437BD465DF8047B704709
:1019F00000ED00E080B400AF044BDB681B0A03F08D
:101A000007031846BD465DF8047B704700ED00E013
:101A100080B483B000AF03463960FB7197F907309B
:101A2000002B0ADB3B68DAB20C4997F90730120148
:101A3000D2B20B4483F800230AE03B68DAB20849CB
:101A4000FB7903F00F03043B1201D2B20B441A7668
:101A500000BF0C37BD465DF8047B704700E100E035
:101A600000ED00E080B489B000AFF860B9607A6042
:101A7000FB6803F00703FB61FB69C3F10703042B59
:101A800028BF0423BB61FB690433062B02D9FB6921
:101A9000033B00E000237B614FF0FF32BB6902FA99
:101AA00003F3DA43BB681A407B699A404FF0FF3179
:101AB0007B6901FA03F3D9437B680B401343184653
:101AC0002437BD465DF8047B7047000080B582B0C6
:101AD00000AF78607B68013BB3F1807F01D30123C5
:101AE0000FE00A4A7B68013B53600F214FF0FF3043
:101AF000FFF78EFF054B00229A60044B07221A6005
:101B0000002318460837BD4680BD00BF10E000E046
:101B100080B582B000AF78607868FFF747FF00BFFC
:101B20000837BD4680BD80B586B000AF0346B960BA
:101B30007A60FB7300237B61FFF75CFF78617A6852
:101B4000B9687869FFF78EFF024697F90F301146A2
:101B50001846FFF75DFF00BF1837BD4680BD80B552
:101B600082B000AF78607868FFF7B0FF0346184690
:101B70000837BD4680BD000080B500AF0E4B1B6826
:101B80000D4A43F4007313600B4B1B680A4A43F47D
:101B900080631360084B1B68074A43F4807313602B
:101BA0000320FFF7B5FF0F2000F008F800F068FDF4
:101BB0000023184680BD00BF003C024080B582B0C3
:101BC00000AF7860124B1A68124B1B7819464FF41D
:101BD0007A73B3FBF1F3B2FBF3F31846FFF7BFFFE1
:101BE0000346002B01D001230EE07B680F2B0AD89F
:101BF000002279684FF0FF30FFF795FF064A7B68B7
:101C00001360002300E0012318460837BD4680BD5D
:101C100000000020080000200400002080B400AF75
:101C2000064B1B781A46064B1B681344044A136084
:101C300000BFBD465DF8047B704700BF0800002070
:101C4000A000002080B400AF034B1B681846BD46BF
:101C50005DF8047B704700BFA000002080B584B011
:101C600000AF7860FFF7EEFFB8607B68FB60FB6851
:101C7000B3F1FF3F05D00A4B1B781A46FB681344AB
:101C8000FB6000BFFFF7DEFF0246BB68D31AFA68AD
:101C90009A42F7D800BF00BF1037BD4680BD00BFD5
:101CA0000800002080B487B000AF786039603B68DE
:101CB0001A687B6853F822303A68126823F00101F1
:101CC0007B6843F822103B689B68082B02D14023B5
:101CD0007B6101E000237B613B685A687B691A43A2
:101CE0003B689B681A433B68DB681A433B681B6987
:101CF0001A433B685B691A433B68DB691A433B68DC
:101D00001B6A1A433B685B6A1A433B689B6A1A4327
:101D10003B68DB6A1A433B681B6B13433B613B68C0
:101D20009B693A6913433B613B68DB6B3A69134338
:101D30003B61104BFB60FB6843F48063FB60FB6816
:101D400043F4E023FB603B681A687B6853F8222069
:101D5000FB68DB4302EA03013B681A683B691943ED
:101D60007B6843F82210002318461C37BD465DF8F7
:101D7000047B70477FFB080080B485B000AFF8603B
:101D8000B9607A60BB681A68BB685B681B011A435C
:101D9000BB689B681B021A43BB68DB681B041A43C1
:101DA000BB681B69013B1B051A43BB685B69023BAF
:101DB0001B0642EA0301BB689B697A68013219433A
:101DC000FB6843F82210002318461437BD465DF81F
:101DD000047B704780B485B000AFF860B9607A606A
:101DE0003B603B68B3F5804F1DD1FB687A6853F8C0
:101DF0002220134B1340BA681168BA685268120166
:101E00001143BA68926812021143BA689269114389
:101E1000BA68D26812040A4343EA0201FB687A688E
:101E200043F8221005E0FB687A686FF0704143F8D0
:101E30002210002318461437BD465DF8047B704716
:101E40000000F0CF80B584B000AFF860B9607A6070
:101E5000FB68002B01D1012338E0FB6893F849307F
:101E6000DBB2002B06D1FB68002283F84820F8681B
:101E700000F0CCFBFB681A68FB6808331946104673
:101E8000FFF710FFFB681868FB689B681A46B96883
:101E9000FFF772FFFB685868FB689A68FB681B6B6A
:101EA0007968FFF797FFFB681B68FA68926853F838
:101EB0002210FB681B68FA68926841F0010143F840
:101EC0002210FB68012283F84920002318461037AE
:101ED000BD4680BD80B584B000AF78607B681A686D
:101EE0007B689B8819461046FFF72EFD0346FB735F
:101EF000FFF7A8FEB8607B68DB79FA7B9A4205D0D1
:101F00007B68FA7BDA717B68BA689A607B689B7938
:101F1000FA7B9A420DD07B689B68BA68D31A1D2B56
:101F200007D97B68FA7B9A71FB7B012B01D10123D6
:101F300000E0002318461037BD4680BD80B584B050
:101F400000AF0346FB80FB88B3F5E16F03D24FF48B
:101F5000E163FB8006E0FB88B3F5486F02D94FF4DC
:101F60004863FB800E4AFB881380FA8813461B03E4
:101F70009B1A03F272639B080A4AA2FB03235B09C4
:101F8000FB60FB68002200210748FEF79CFE034629
:101F9000002B01D000F082F900BF1037BD4680BD94
:101FA0000A0000209F00EE09A400002080B582B046
:101FB00002AF01F02DF9012001F072F8264B4FF627
:101FC000FF721A804FF6FF7003F04CFC234B4FF466
:101FD00078421A80224B0193182300931C234FF45C
:101FE0008C7212211C2003F0E5FD1C4B00221A808C
:101FF0001C4B0193102300931423BE223E21482042
:1020000003F0D8FD154B48F230421A80164B01936D
:10201000102300931423DC2291213A2003F0CAFDFF
:10202000124B0193102300931423DC22AB213A209E
:1020300003F0C0FD094B1F221A800D4B01931023A2
:1020400000931423B422CF21502003F0B3FD00F0FD
:1020500011F800BFBD4680BD240000201001002003
:10206000C06A0008D86A0008E86A0008F86A000830
:10207000086B000880B584B002AF274B1B88274A45
:10208000A2FB03239B099BB27B60234B1B88234A43
:10209000A2FB031292094FF47A7101FB02F29B1A20
:1020A0009BB21F4AA2FB03235B099BB23B604FF626
:1020B000FF7300937D23E4225C215C2003F000FC8D
:1020C000184B4FF4FC621A801823009301237A689E
:1020D0006021702003F0FCFC134B01931823009344
:1020E0001C23102260217C2003F064FD1823009340
:1020F00001233A686021882003F0EAFC0B4B01932E
:10210000182300931C23282260219C2003F052FDF9
:1021100000BF0837BD4680BD0A000020D34D6210C5
:102120001F85EB5110010020186B00081C6B000884
:1021300080B500AFFFF720FD00F046F800F0B4F8DE
:1021400000F026F900F092F900211B48FEF764FD2B
:102150000346002B01D000F0A1F840F6C410FFF7B1
:10216000EDFEFFF723FF1548FFF7B4FE0346002BF3
:102170000DD0134B1B88B3F5486F08D2104B1B884A
:1021800064339BB21846FFF7D9FEFFF773FF0D4883
:10219000FFF7A0FE0346002BE5D0094B1B88B3F5E3
:1021A000E16FE0D9064B1B88643B9BB21846FFF7F2
:1021B000C5FEFFF75FFFD6E7A40000200C0000205B
:1021C0000A0000201800002080B594B000AF07F18D
:1021D000200330220021184603F054FE07F10C03BF
:1021E00000221A605A609A60DA601A610023BB60AC
:1021F000284B1B6C274A43F080531364254B1B6C00
:1022000003F08053BB60BB6800237B60224B1B68DC
:10221000214A43F4804313601F4B1B6803F480433F
:102220007B607B6802233B620123FB6210233B63DC
:102230000223BB630023FB6308233B64A8237B6466
:102240000223BB640423FB6407F120031846FEF756
:10225000BDFD0346002B01D000F020F80F23FB60EA
:1022600002233B6100237B614FF4A053BB614FF419
:102270008053FB6107F10C0305211846FFF71EF898
:102280000346002B01D000F009F800BF5037BD46CF
:1022900080BD00BF003802400070004080B400AF35
:1022A00072B600BF00BFFDE780B58AB000AF07F18E
:1022B000140300221A605A609A60DA601A610023DF
:1022C0003B61304B1B6B2F4A43F0100313632D4BC4
:1022D0001B6B03F010033B613B690023FB60294B40
:1022E0001B6B284A43F001031363264B1B6B03F05F
:1022F0000103FB60FB680023BB60224B1B6B214A80
:1023000043F0200313631F4B1B6B03F02003BB60E0
:10231000BB6800237B601B4B1B6B1A4A43F008030E
:102320001363184B1B6B03F008037B607B6800236F
:102330003B60144B1B6B134A43F040031363114B78
:102340001B6B03F040033B603B6810237B61002361
:10235000BB610223FB6107F1140319460A48FFF72A
:1023600057F901237B610023BB610223FB6107F165
:10237000140319460548FFF74BF900BF2837BD463F
:1023800080BD00BF00380240001002400000024043
:1023900080B582B000AF3B4600221A605A600F4BF6
:1023A0000F4A1A600D48FEF715FC0346002B01D0BA
:1023B000FFF774FF00233B6002237B603B46002253
:1023C00019460648FEF7A9FC0346002B01D0FFF78B
:1023D00065FF00BF0837BD4680BD00BFA4000020D8
:1023E0000074004080B58AB000AF786007F1140334
:1023F00000221A605A609A60DA601A617B681B6872
:10240000174A934227D100233B61164B1B6C154A98
:1024100043F000531364134B1B6C03F000533B61F8
:102420003B690023FB600F4B1B6B0E4A43F001031B
:1024300013630C4B1B6B03F00103FB60FB68102361
:102440007B610323BB610023FB6107F11403194681
:102450000548FFF7DDF800BF2837BD4680BD00BF47
:1024600000740040003802400000024080B588B08F
:1024700000AF3B1D00221A605A609A60DA601A6150
:102480005A619A61274B4FF020421A60254B264A29
:102490005A60244B06229A60224B0022DA60214BBC
:1024A00000221A611F4B10225A611E4B00229A61B2
:1024B0001C4B0022DA611B4B00221A62194B0022CE
:1024C0005A62184B4FF480529A62164B0022DA621D
:1024D000144B00221A63134B00225A63114B002243
:1024E0009A63104B00225A6409237B600F23BB6060
:1024F0000923FB600F233B6110237B611123BB6128
:102500000023FB613B1D002219460648FFF79AFC99
:102510000346002B01D0FFF7C1FE00BF2037BD46A8
:1025200080BD00BFB8000020040100A080B586B0C7
:1025300000AF3B1D00221A605A609A60DA601A618F
:102540002C4B1B68002B51D12A4B01221A6000230F
:102550003B60294B9B6B284A43F001039363264B56
:102560009B6B03F001033B603B684FF480537B603F
:102570000223BB600023FB6003233B610C237B61D0
:102580003B1D19461D48FFF743F84FF680737B60EB
:102590000223BB600023FB6003233B610C237B61B0
:1025A0003B1D19461648FFF733F84CF233737B6036
:1025B0000223BB600023FB6003233B610C237B6190
:1025C0003B1D19460F48FFF723F84FF480537B60FB
:1025D0000223BB600023FB6003233B610C237B6170
:1025E0003B1D19460848FFF713F800E000BF1837F5
:1025F000BD4680BD080100200038024000140240A2
:1026000000100240000C02400018024080B582B069
:1026100000AF7860FFF78AFF00BF0837BD4680BD76
:1026200080B400AF00BFFDE780B400AF00BFFDE79E
:1026300080B400AF00BFFDE780B400AF00BFFDE78E
:1026400080B400AF00BFFDE780B400AF00BFBD465F
:102650005DF8047B704780B400AF00BFBD465DF8F5
:10266000047B704780B400AF00BFBD465DF8047BBB
:10267000704780B500AFFFF7D1FA00BF80BD000002
:1026800080B483B000AF00237B60104B5B6C0F4ABB
:1026900043F4804353640D4B5B6C03F480437B60D5
:1026A0007B6800233B60094B1B6C084A43F0805356
:1026B0001364064B1B6C03F080533B603B6800BF08
:1026C0000C37BD465DF8047B704700BF0038024000
:1026D00080B586B000AF7860144A154BD31A7B6181
:1026E0007B693B61134B1B68002B02D1114B124AD3
:1026F0001A60104B1A687B6813443A699A4207D2F1
:1027000003F00EFC03460C221A604FF0FF3309E081
:10271000084B1B68FB60074B1A687B681344054A2B
:102720001360FB6818461837BD4680BD00000220C4
:10273000000400000C0100207002002080B586B06B
:1027400000AFF860B9607A6000237B610AE0AFF304
:1027500000800146BB685A1CBA60CAB21A707B6915
:1027600001337B617A697B689A42F0DB7B681846AB
:102770001837BD4680BD80B586B000AFF860B9603F
:102780007A6000237B6109E0BB685A1CBA601B7841
:102790001846AFF300807B6901337B617A697B68FF
:1027A0009A42F1DB7B6818461837BD4680BD80B47D
:1027B00083B000AF78604FF0FF3318460C37BD464A
:1027C0005DF8047B704780B483B000AF78603960F7
:1027D0003B684FF400525A60002318460C37BD4640
:1027E0005DF8047B704780B483B000AF786001234C
:1027F00018460C37BD465DF8047B704780B485B041
:1028000000AFF860B9607A60002318461437BD46FF
:102810005DF8047B70470000DFF834D0FEF7C8F99C
:102820000C480D490D4A002302E0D458C45004332B
:10283000C4188C42F9D30A4A0A4C002301E0136001
:102840000432A242FBD303F071FBFFF771FC704727
:1028500000000220000000208400002044830008C3
:102860008400002070020020FEE7000080B487B0E2
:1028700000AF78601A4B1B681A4AA2FB03239B0C1B
:102880003B61194B5B687B617B683A6902FB03F330
:10289000FB60164BDB6803F08073002B11D1134BE8
:1028A000DB68124A43F08073D3600F4B00225A60FA
:1028B0000D4B1B680C4A43F0010313600A4B5B6825
:1028C0007B6100BF084B5A687B69D31AFA689A4249
:1028D000F8D800BF00BF1C37BD465DF8047B7047C9
:1028E0000000002083DE1B43001000E0F0ED00E05C
:1028F00080B586B000AF3B1D00221A605A609A6016
:10290000DA601A6100233B60114B1B6B104A43F0E5
:10291000020313630E4B1B6B03F002033B603B6827
:102920004FF400437B600123BB600023FB60002366
:102930003B613B1D19460748FEF76AFE01224FF432
:1029400000410448FFF718F800BF1837BD4680BDA6
:10295000003802400004024080B483B000AF034658
:10296000FB80FB889BB2FB80044BFA8892B21A80F2
:1029700000BF0C37BD465DF8047B70477E00006CDD
:1029800080B483B000AF0346FB80FB889BB2FB8022
:10299000044BFA8892B25A8000BF0C37BD465DF8EE
:1029A000047B70477E00006C80B483B000AF064BA0
:1029B0005B889BB2FB80FB889BB218460C37BD46F8
:1029C0005DF8047B704700BF7E00006C80B483B06C
:1029D00000AF03460A46FB801346BB80054AFB88CE
:1029E0001380044ABB88538000BF0C37BD465DF896
:1029F000047B70477E00006C80B400AF044B054A36
:102A000012891A8000BFBD465DF8047B704700BF85
:102A10007E00006C1401002080B582B000AF034638
:102A20000A46FB801346BB80654B9B8841F66312C8
:102A3000934267D1624B9B79002B1ED1604B1A8861
:102A4000FB88D31A9BB2013BFB805D4B5B89184628
:102A5000FFF782FF0020FFF793FF0020FFF790FFB2
:102A6000FB881B0A9BB21846FFF78AFFFB88DBB284
:102A70009BB21846FFF784FF21E0514B5B89184653
:102A8000FFF76AFFFB881B0A9BB21846FFF778FF27
:102A9000FB88DBB29BB21846FFF772FF484B1B88DE
:102AA000013B1B129BB21846FFF76AFF444B1B8881
:102AB000013B9BB2DBB29BB21846FFF761FF404B74
:102AC0009B891846FFF748FFBB881B0A9BB2184634
:102AD000FFF756FFBB88DBB29BB21846FFF750FFEB
:102AE000374B5B88013B1B129BB21846FFF748FF30
:102AF000334B5B88013B9BB2DBB29BB21846FFF7BE
:102B00003FFF58E02E4B9B8845F21052934230D144
:102B10002B4B5B891846FFF71FFFFB881B0A9BB2F4
:102B20001846FFF72DFF264B5B8901339BB21846F1
:102B3000FFF712FFFB88DBB29BB21846FFF720FFBE
:102B40001F4B9B891846FFF707FFBB881B0A9BB2E8
:102B50001846FFF715FF1A4B9B8901339BB21846A5
:102B6000FFF7FAFEBB88DBB29BB21846FFF708FFFF
:102B700021E0134B5B891846FFF7EEFEFB881B0A2A
:102B80009BB21846FFF7FCFEFB88DBB29BB21846EF
:102B9000FFF7F6FE0A4B9B891846FFF7DDFEBB8860
:102BA0001B0A9BB21846FFF7EBFEBB88DBB29BB259
:102BB0001846FFF7E5FE00BF0837BD4680BD00BFE1
:102BC0001401002080B584B000AF0346FB710023E0
:102BD000FB810023BB81994B9B79012B05D1974B3E
:102BE0009B8841F66312934209D1944B9B79002B49
:102BF00034D1924B9B8841F6631293422ED1FB79DC
:102C0000072B2BD801A252F823F000BF2D2C00086F
:102C1000332C0008392C00083F2C0008452C0008F4
:102C20004B2C0008512C0008572C00080623FB7180
:102C300014E00723FB7111E00423FB710EE0052370
:102C4000FB710BE00123FB7108E00023FB7105E041
:102C50000323FB7102E00223FB7100BFFB79072B0A
:102C600035D801A252F823F0CF2C0008892C000897
:102C7000932C00089D2C0008A72C0008B12C0008FC
:102C8000BB2C0008C52C0008FB8943F08003FB81A6
:102C90001DE0FB8943F04003FB8118E0FB8943F012
:102CA000C003FB8113E0FB8943F02003FB810EE0AE
:102CB000FB8943F06003FB8109E0FB8943F0A0033B
:102CC000FB8104E0FB8943F0E003FB8100BF5B4B29
:102CD0009B8845F21052934203D14FF45853BB8165
:102CE00001E03623BB81554B9B8849F24132934228
:102CF00005D0524B9B8847F28972934203D1FB89DE
:102D000043F00803FB81FA89BB8911461846FFF797
:102D10005DFE4A4B9B8841F66312934225D0FB89A6
:102D200003F02003002B10D0444B1A88434B5B88E0
:102D30009A421AD2414B1B887B81404B5A883F4BA9
:102D40001A803E4A7B8953800FE03C4B1A883B4BEC
:102D50005B889A4209D9394B1B887B81374B5A884B
:102D6000364B1A80354A7B895380344B9B8845F219
:102D70001052934264D1314B5B891846FFF7ECFD4A
:102D80000020FFF7FDFD2D4B5B8901339BB21846F8
:102D9000FFF7E2FD0020FFF7F3FD284B5B890233CC
:102DA0009BB21846FFF7D8FD244B1B88013B1B1232
:102DB0009BB21846FFF7E4FD204B5B8903339BB2BF
:102DC0001846FFF7C9FD1D4B1B88013B9BB2DBB2C8
:102DD0009BB21846FFF7D4FD184B9B891846FFF7A6
:102DE000BBFD0020FFF7CCFD144B9B8901339BB248
:102DF0001846FFF7B1FD0020FFF7C2FD0F4B9B897E
:102E000002339BB21846FFF7A7FD0C4B5B88013BD2
:102E10001B129BB21846FFF7B3FD084B9B89033387
:102E20009BB21846FFF798FD044B5B88013B9BB2B1
:102E3000DBB29BB21846FFF7A3FD39E01401002076
:102E40001D4B5B891846FFF787FD0020FFF798FDB3
:102E50000020FFF795FD184B1B88013B1B129BB20E
:102E60001846FFF78DFD144B1B88013B9BB2DBB26C
:102E70009BB21846FFF784FD0F4B9B891846FFF75E
:102E80006BFD0020FFF77CFD0020FFF779FD0A4B6A
:102E90005B88013B1B129BB21846FFF771FD064B86
:102EA0005B88013B9BB2DBB29BB21846FFF768FD23
:102EB00000BF1037BD4680BD1401002080B582B030
:102EC00000AF0346FB800B46BB8013467B80584B0C
:102ED0009B8845F21052934230D1554B5B8918467E
:102EE000FFF73AFDFB881B0A9BB21846FFF748FD27
:102EF0004F4B5B8901339BB21846FFF72DFDFB88D2
:102F0000DBB29BB21846FFF73BFD494B9B89184645
:102F1000FFF722FDBB881B0A9BB21846FFF730FD66
:102F2000434B9B8901339BB21846FFF715FDBB88C5
:102F3000DBB29BB21846FFF723FD6DE03C4B9B884C
:102F400041F66312934245D1394B9B79002B06D150
:102F5000374B1A88FB88D31A9BB2013BFB80344B5A
:102F60005B891846FFF7F8FCFB881B0A9BB21846E2
:102F7000FFF706FDFB88DBB29BB21846FFF700FDAA
:102F8000FB881B0A9BB21846FFF7FAFCFB88DBB2F2
:102F90009BB21846FFF7F4FC254B9B891846FFF7B8
:102FA000DBFCBB881B0A9BB21846FFF7E9FCBB8819
:102FB000DBB29BB21846FFF7E3FCBB881B0A9BB24F
:102FC0001846FFF7DDFCBB88DBB29BB21846FFF763
:102FD000D7FC21E0164B5B891846FFF7BDFCFB8848
:102FE0001B0A9BB21846FFF7CBFCFB88DBB29BB2F7
:102FF0001846FFF7C5FC0E4B9B891846FFF7ACFC43
:10300000BB881B0A9BB21846FFF7BAFCBB88DBB231
:103010009BB21846FFF7B4FC064B054A12891A808A
:10302000044A7B88538000BF0837BD4680BD00BF7F
:10303000140100207E00006C80B582B000AF034612
:10304000FB71BE20FFF788FC0520FFF799FCFB7998
:103050001846FDF739FB10A3D3E90023FDF7B8F8B4
:1030600002460B4610461946FDF798FB03469BB2F5
:103070001846FFF785FC0120FFF782FCFF20FFF7D1
:103080007FFC0020FFF77CFC0020FFF779FC00BFED
:103090000837BD4680BD00BF66666666666604404A
:1030A00080B582B000AF0346FB71584AFB7993713B
:1030B000FB79002B51D1554BF0221A80534B4FF422
:1030C000A0725A80514B9B8845F21052934214D102
:1030D0004E4B4FF430521A814C4B4FF428525A81C8
:1030E0004A4B4FF42C529A81484B4FF4F0721A809D
:1030F000464B4FF448725A8020E0444B9B8841F67F
:103100006312934211D1414B2C221A813F4B2B2247
:103110005A813E4B2A229A813C4B4FF4F0721A801E
:103120003A4B4FF448725A8008E0384B2C221A81EF
:10313000364B2A225A81354B2B229A81334B9B885E
:1031400045F21032934259D1304B4FF4A0721A809D
:103150002E4B4FF4F0725A8050E02C4B4FF4A0727B
:103160001A802A4BF0225A80284B9B8845F2105235
:10317000934214D1254B4FF430521A81234B4FF414
:1031800028525A81214B4FF42C529A811F4B4FF4F5
:1031900048721A801D4B4FF4F0725A8020E01B4B8E
:1031A0009B8841F66312934211D1184B2C221A814D
:1031B000164B2A225A81154B2B229A81134B4FF41E
:1031C00048721A80114B4FF4F0725A8008E00F4B8E
:1031D0002C221A810D4B2A225A810C4B2B229A81C8
:1031E0000A4B9B8845F21032934207D1074B4FF4AC
:1031F000F0721A80054B4FF4A0725A800020FFF73E
:10320000E1FC00BF0837BD4680BD00BF14010020AF
:1032100080B500AF3220FEF721FDD320FFF79CFBE5
:10322000FFF7C2FB03461A469A4B9A80FFF7BCFB96
:1032300003461A46974B9A80FFF7B6FB03461A4699
:10324000944B9A80934B9B881B029AB2914B9A8025
:10325000FFF7AAFB03461A468E4B9B8813439AB28C
:103260008C4B9A808B4B9B8849F24132934200F001
:10327000D3800420FFF770FBFFF796FB03461A4646
:10328000844B9A80FFF790FB03461A46814B9A8045
:10329000FFF78AFB03461A467E4B9A807D4B9B883C
:1032A0001B029AB27B4B9A80FFF77EFB03461A46BD
:1032B000784B9B8813439AB2764B9A80754B9B88C8
:1032C00048F25252934203D1724B47F289729A806C
:1032D000704B9B8847F28972934200F09D80D42006
:1032E000FFF73AFBFFF760FB03461A46694B9A80EB
:1032F000FFF75AFB03461A46664B9A80FFF754FBCA
:1033000003461A46634B9A80624B9B881B029AB213
:10331000604B9A80FFF748FB03461A465D4B9B883B
:1033200013439AB25B4B9A805A4B9B8845F21032FA
:10333000934271D055214FF47040FFF747FBAA210B
:103340004FF20100FFF742FB52214FF20200FFF75C
:103350003DFB08214FF20300FFF738FB01214FF23C
:103360000400FFF733FB4FF44540FFF7F5FAFFF792
:103370001BFB03461A46474B9A80464B9B881B0211
:103380009AB2444B9A804CF20150FFF7E5FAFFF7EE
:103390000BFB03461A463F4B9B8813439AB23D4BA7
:1033A0009A800520FEF75AFC3A4B9B88B3F5004FF4
:1033B00003D1384B45F210529A80364B9B8845F228
:1033C0001052934228D0A120FFF7C6FAFFF7ECFA7B
:1033D00003461A462F4B9A80FFF7E6FA03461A4631
:1033E0002C4B9A802B4B9B881B029AB2294B9A80BC
:1033F000FFF7DAFA03461A46264B9B8813439AB224
:10340000244B9A80234B9B8845F26172934203D1EF
:10341000204B41F663129A801E4B9B8849F2413241
:10342000934217D01B4B9B8847F28972934211D06D
:10343000184B9B8845F2103293420BD0154B9B885A
:1034400045F21052934205D0124B9B8841F663120D
:10345000934229D1104B9B690F4A23F00F039361CC
:103460000D4B9B690C4A23F4706393610A4B9B6973
:10347000094A43F003039361064B9B8847F2897224
:1034800093420BD1044B9B69034A43F4407393610D
:103490000AE000BF14010020040100A0944B9B69C6
:1034A000934A43F400739361924B9B881946924868
:1034B00002F092FC8F4B9B8849F24132934240F0DC
:1034C0001D81CF20FFF748FA0020FFF759FAC120ED
:1034D000FFF756FA3020FFF753FAED20FFF73CFADA
:1034E0006420FFF74DFA0320FFF74AFA1220FFF796
:1034F00047FA8120FFF744FAE820FFF72DFA8520EC
:10350000FFF73EFA1020FFF73BFA7A20FFF738FA70
:10351000CB20FFF721FA3920FFF732FA2C20FFF7F2
:103520002FFA0020FFF72CFA3420FFF729FA0220A7
:10353000FFF726FAF720FFF70FFA2020FFF720FA0F
:10354000EA20FFF709FA0020FFF71AFA0020FFF738
:1035500017FAC020FFF700FA1B20FFF711FAC1206D
:10356000FFF7FAF90120FFF70BFAC520FFF7F4F98E
:103570003020FFF705FA3020FFF702FAC720FFF7E7
:10358000EBF9B720FFF7FCF93620FFF7E5F9482003
:10359000FFF7F6F93A20FFF7DFF95520FFF7F0F9CA
:1035A000B120FFF7D9F90020FFF7EAF91A20FFF759
:1035B000E7F9B620FFF7D0F90A20FFF7E1F9A220DA
:1035C000FFF7DEF9F220FFF7C7F90020FFF7D8F97F
:1035D0002620FFF7C1F90120FFF7D2F9E020FFF71D
:1035E000BBF90F20FFF7CCF92A20FFF7C9F92820F3
:1035F000FFF7C6F90820FFF7C3F90E20FFF7C0F95F
:103600000820FFF7BDF95420FFF7BAF9A920FFF70A
:10361000B7F94320FFF7B4F90A20FFF7B1F90F20FB
:10362000FFF7AEF90020FFF7ABF90020FFF7A8F98C
:103630000020FFF7A5F90020FFF7A2F9E120FFF72E
:103640008BF90020FFF79CF91520FFF799F9172057
:10365000FFF796F90720FFF793F91120FFF790F98C
:103660000620FFF78DF92B20FFF78AF95620FFF788
:1036700087F93C20FFF784F90520FFF781F9102036
:10368000FFF77EF90F20FFF77BF93F20FFF778F96E
:103690003F20FFF775F90F20FFF772F92B20FFF796
:1036A0005BF90020FFF76CF90020FFF769F90120B2
:1036B000FFF766F93F20FFF763F92A20FFF74CF97F
:1036C0000020FFF75DF90020FFF75AF90020FFF70F
:1036D00057F9EF20FFF754F91120FFF73DF9782053
:1036E000FEF7BCFA2920FFF737F902F0AEB800BFA9
:1036F000040100A014010020206B00086D4B9B8882
:1037000047F28972934240F0D7801120FFF724F9E5
:103710007820FEF7A3FA3620FFF71EF90020FFF706
:103720002FF93A20FFF718F90520FFF729F9B22001
:10373000FFF712F90C20FFF723F90C20FFF720F90F
:103740000020FFF71DF93320FFF71AF93320FFF7A8
:1037500017F9B720FFF700F93520FFF711F9BB2063
:10376000FFF7FAF83220FFF70BF9C020FFF7F4F863
:103770000C20FFF705F9C220FFF7EEF80120FFF754
:10378000FFF8C320FFF7E8F81020FFF7F9F8C4208E
:10379000FFF7E2F82020FFF7F3F8C620FFF7DCF888
:1037A0000F20FFF7EDF8D020FFF7D6F8A420FFF7A1
:1037B000E7F8A120FFF7E4F8E020FFF7CDF8D020EC
:1037C000FFF7DEF80020FFF7DBF80220FFF7D8F85C
:1037D0000720FFF7D5F80A20FFF7D2F82820FFF7D7
:1037E000CFF83220FFF7CCF84420FFF7C9F8422089
:1037F000FFF7C6F80620FFF7C3F80E20FFF7C0F862
:103800001220FFF7BDF81420FFF7BAF81720FFF7D2
:10381000B7F8E120FFF7A0F8D020FFF7B1F80020BB
:10382000FFF7AEF80220FFF7ABF80720FFF7A8F884
:103830000A20FFF7A5F82820FFF7A2F83120FFF7AC
:103840009FF85420FFF79CF84720FFF799F80E20C7
:10385000FFF796F81C20FFF793F81720FFF790F872
:103860001B20FFF78DF81E20FFF78AF82A20FFF7AC
:1038700073F80020FFF784F80020FFF781F800209C
:10388000FFF77EF8EF20FFF77BF82B20FFF764F8B7
:103890000020FFF775F80020FFF772F80120FFF70E
:1038A0006FF83F20FFF76CF82920FFF755F801F07B
:1038B000CCBF00BF14010020034B9B8845F210329F
:1038C000934240F07C8701E014010020ED20FFF7D7
:1038D00043F80120FFF754F8FE20FFF751F8EE20DF
:1038E000FFF73AF8DE20FFF74BF82120FFF748F802
:1038F000F120FFF731F80120FFF742F8DF20FFF752
:103900002BF81020FFF73CF8C420FFF725F88F2094
:10391000FFF736F8C620FFF71FF80020FFF730F852
:10392000E220FFF72DF8E220FFF72AF8E220FFF768
:1039300027F8BF20FFF710F8AA20FFF721F8B020E2
:10394000FFF70AF80D20FFF71BF80020FFF718F823
:103950000D20FFF715F80020FFF712F81120FFF7F0
:103960000FF80020FFF70CF81920FFF709F80020E6
:10397000FFF706F82120FFF703F80020FFF700F813
:103980002D20FEF7FDFF0020FEF7FAFF3D20FEF799
:10399000F7FF0020FEF7F4FF5D20FEF7F1FF0020A7
:1039A000FEF7EEFF5D20FEF7EBFF0020FEF7E8FFDD
:1039B000B120FEF7D1FF8020FEF7E2FF0020FEF7E6
:1039C000DFFF8B20FEF7DCFF0020FEF7D9FF9620FB
:1039D000FEF7D6FF0020FEF7D3FFB220FEF7BCFFB4
:1039E0000020FEF7CDFF0020FEF7CAFF0220FEF701
:1039F000C7FF0020FEF7C4FF0320FEF7C1FF002031
:103A0000FEF7BEFFB320FEF7A7FF0020FEF7B8FFCA
:103A10000020FEF7B5FF0020FEF7B2FF0020FEF702
:103A2000AFFF0020FEF7ACFF0020FEF7A9FF00204B
:103A3000FEF7A6FF0020FEF7A3FF0020FEF7A0FF81
:103A40000020FEF79DFF0020FEF79AFF0020FEF702
:103A500097FF0020FEF794FF0020FEF791FF002063
:103A6000FEF78EFF0020FEF78BFF0020FEF788FF99
:103A70000020FEF785FF0020FEF782FF0020FEF702
:103A80007FFF0020FEF77CFF0020FEF779FF00207B
:103A9000FEF776FF0020FEF773FFB420FEF75CFF11
:103AA0008B20FEF76DFF0020FEF76AFF9620FEF7E1
:103AB00067FF0020FEF764FFA120FEF761FF0020F2
:103AC000FEF75EFFB520FEF747FF0220FEF758FF26
:103AD0000020FEF755FF0320FEF752FF0020FEF7FF
:103AE0004FFF0420FEF74CFF0020FEF749FFB620F1
:103AF000FEF732FF0020FEF743FF0020FEF740FFF5
:103B0000B720FEF729FF0020FEF73AFF0020FEF75E
:103B100037FF3F20FEF734FF0020FEF731FF5E2025
:103B2000FEF72EFF0020FEF72BFF6420FEF728FF94
:103B30000020FEF725FF8C20FEF722FF0020FEF775
:103B40001FFFAC20FEF71CFF0020FEF719FFDC2052
:103B5000FEF716FF0020FEF713FF7020FEF710FFA0
:103B60000020FEF70DFF9020FEF70AFF0020FEF771
:103B700007FFEB20FEF704FF0020FEF701FFDC202B
:103B8000FEF7FEFE0020FEF7FBFEB820FEF7E4FE87
:103B90000020FEF7F5FE0020FEF7F2FE0020FEF703
:103BA000EFFE0020FEF7ECFE0020FEF7E9FE00200D
:103BB000FEF7E6FE0020FEF7E3FE0020FEF7E0FE43
:103BC000BA20FEF7C9FE2420FEF7DAFE0020FEF739
:103BD000D7FE0020FEF7D4FE0020FEF7D1FEC12064
:103BE000FEF7BAFE2020FEF7CBFE0020FEF7C8FE4F
:103BF0005420FEF7C5FE0020FEF7C2FEFF20FEF7B0
:103C0000BFFE0020FEF7BCFEC220FEF7A5FE0A2084
:103C1000FEF7B6FE0020FEF7B3FE0420FEF7B0FE6E
:103C20000020FEF7ADFEC320FEF796FE3C20FEF717
:103C3000A7FE0020FEF7A4FE3A20FEF7A1FE00201A
:103C4000FEF79EFE3920FEF79BFE0020FEF798FE51
:103C50003720FEF795FE0020FEF792FE3C20FEF78F
:103C60008FFE0020FEF78CFE3620FEF789FE002036
:103C7000FEF786FE3220FEF783FE0020FEF780FE70
:103C80002F20FEF77DFE0020FEF77AFE2C20FEF7A7
:103C900077FE0020FEF774FE2920FEF771FE00205B
:103CA000FEF76EFE2620FEF76BFE0020FEF768FE94
:103CB0002420FEF765FE0020FEF762FE2420FEF7BA
:103CC0005FFE0020FEF75CFE2320FEF759FE002079
:103CD000FEF756FE3C20FEF753FE0020FEF750FE96
:103CE0003620FEF74DFE0020FEF74AFE3220FEF79A
:103CF00047FE0020FEF744FE2F20FEF741FE002085
:103D0000FEF73EFE2C20FEF73BFE0020FEF738FEBD
:103D10002920FEF735FE0020FEF732FE2620FEF7B2
:103D20002FFE0020FEF72CFE2420FEF729FE0020A7
:103D3000FEF726FE2420FEF723FE0020FEF720FEDD
:103D40002320FEF71DFE0020FEF71AFEC420FEF71A
:103D500003FE6220FEF714FE0020FEF711FE052090
:103D6000FEF70EFE0020FEF70BFE8420FEF708FE95
:103D70000020FEF705FEF020FEF702FE0020FEF711
:103D8000FFFD1820FEF7FCFD0020FEF7F9FDA42042
:103D9000FEF7F6FD0020FEF7F3FD1820FEF7F0FD1C
:103DA0000020FEF7EDFD5020FEF7EAFD0020FEF7B3
:103DB000E7FD0C20FEF7E4FD0020FEF7E1FD1720F3
:103DC000FEF7DEFD0020FEF7DBFD9520FEF7D8FDB7
:103DD0000020FEF7D5FDF320FEF7D2FD0020FEF710
:103DE000CFFDE620FEF7CCFD0020FEF7C9FDC52083
:103DF000FEF7B2FD3220FEF7C3FD0020FEF7C0FD46
:103E00004420FEF7BDFD0020FEF7BAFD6520FEF759
:103E1000B7FD0020FEF7B4FD7620FEF7B1FD0020CF
:103E2000FEF7AEFD8820FEF7ABFD0020FEF7A8FDF3
:103E3000C620FEF791FD2020FEF7A2FD0020FEF730
:103E40009FFD1720FEF79CFD0020FEF799FD012045
:103E5000FEF796FD0020FEF793FDC720FEF77CFDE0
:103E60000020FEF78DFD0020FEF78AFD0020FEF702
:103E700087FD0020FEF784FDC820FEF76DFD0020C1
:103E8000FEF77EFD0020FEF77BFD0020FEF778FDAB
:103E90000020FEF775FDC920FEF75EFD0020FEF74D
:103EA0006FFD0020FEF76CFD0020FEF769FD00208D
:103EB000FEF766FD0020FEF763FD0020FEF760FDC3
:103EC0000020FEF75DFD0020FEF75AFD0020FEF702
:103ED00057FD0020FEF754FD0020FEF751FD0020A5
:103EE000FEF74EFD0020FEF74BFD0020FEF748FDDB
:103EF0000020FEF745FD0020FEF742FDE020FEF722
:103F00002BFD1620FEF73CFD0020FEF739FD1C209E
:103F1000FEF736FD0020FEF733FD2120FEF730FDD1
:103F20000020FEF72DFD3620FEF72AFD0020FEF7CB
:103F300027FD4620FEF724FD0020FEF721FD52203C
:103F4000FEF71EFD0020FEF71BFD6420FEF718FDA6
:103F50000020FEF715FD7A20FEF712FD0020FEF787
:103F60000FFD8B20FEF70CFD0020FEF709FD9920C8
:103F7000FEF706FD0020FEF703FDA820FEF700FD7A
:103F80000020FEF7FDFCB920FEF7FAFC0020FEF74A
:103F9000F7FCC420FEF7F4FC0020FEF7F1FCCA2079
:103FA000FEF7EEFC0020FEF7EBFCD220FEF7E8FC6B
:103FB0000020FEF7E5FCD920FEF7E2FC0020FEF72A
:103FC000DFFCE020FEF7DCFC0020FEF7D9FCF3204C
:103FD000FEF7D6FC0020FEF7D3FCE120FEF7BCFC88
:103FE0001620FEF7CDFC0020FEF7CAFC1C20FEF7D1
:103FF000C7FC0020FEF7C4FC2220FEF7C1FC002015
:10400000FEF7BEFC3620FEF7BBFC0020FEF7B8FC36
:104010004520FEF7B5FC0020FEF7B2FC5220FEF76B
:10402000AFFC0020FEF7ACFC6420FEF7A9FC0020EA
:10403000FEF7A6FC7A20FEF7A3FC0020FEF7A0FC0A
:104040008B20FEF79DFC0020FEF79AFC9920FEF7DE
:1040500097FC0020FEF794FCA820FEF791FC0020BE
:10406000FEF78EFCB920FEF78BFC0020FEF788FCE3
:10407000C420FEF785FC0020FEF782FCCA20FEF774
:104080007FFC0020FEF77CFCD220FEF779FC0020AC
:10409000FEF776FCD820FEF773FC0020FEF770FCDC
:1040A000E020FEF76DFC0020FEF76AFCF320FEF72F
:1040B00067FC0020FEF764FCE220FEF74DFC0520C3
:1040C000FEF75EFC0020FEF75BFC0B20FEF758FCC1
:1040D0000020FEF755FC1B20FEF752FC0020FEF7E7
:1040E0004FFC3420FEF74CFC0020FEF749FC442036
:1040F000FEF746FC0020FEF743FC4F20FEF740FC95
:104100000020FEF73DFC6120FEF73AFC0020FEF7A0
:1041100037FC7920FEF734FC0020FEF731FC8820C4
:10412000FEF72EFC0020FEF72BFC9720FEF728FC64
:104130000020FEF725FCA620FEF722FC0020FEF75B
:104140001FFCB720FEF71CFC0020FEF719FCC22064
:10415000FEF716FC0020FEF713FCC720FEF710FC4C
:104160000020FEF70DFCD120FEF70AFC0020FEF730
:1041700007FCD620FEF704FC0020FEF701FCDD2042
:10418000FEF7FEFB0020FEF7FBFBF320FEF7F8FB3B
:104190000020FEF7F5FBE320FEF7DEFB0520FEF72F
:1041A000EFFB0020FEF7ECFB0A20FEF7E9FB002006
:1041B000FEF7E6FB1C20FEF7E3FB0020FEF7E0FB2A
:1041C0003320FEF7DDFB0020FEF7DAFB4420FEF78C
:1041D000D7FB0020FEF7D4FB5020FEF7D1FB0020D8
:1041E000FEF7CEFB6220FEF7CBFB0020FEF7C8FBFC
:1041F0007820FEF7C5FB0020FEF7C2FB8820FEF703
:10420000BFFB0020FEF7BCFB9720FEF7B9FB0020A8
:10421000FEF7B6FBA620FEF7B3FB0020FEF7B0FBCF
:10422000B720FEF7ADFB0020FEF7AAFBC220FEF789
:10423000A7FB0020FEF7A4FBC720FEF7A1FB002090
:10424000FEF79EFBD120FEF79BFB0020FEF798FBBC
:10425000D520FEF795FB0020FEF792FBDD20FEF750
:104260008FFB0020FEF78CFBF320FEF789FB00207C
:10427000FEF786FBE420FEF76FFB0120FEF780FBD4
:104280000020FEF77DFB0120FEF77AFB0020FEF701
:1042900077FB0220FEF774FB0020FEF771FB2A205B
:1042A000FEF76EFB0020FEF76BFB3C20FEF768FB81
:1042B0000020FEF765FB4B20FEF762FB0020FEF7B7
:1042C0005FFB5D20FEF75CFB0020FEF759FB7420CE
:1042D000FEF756FB0020FEF753FB8420FEF750FB51
:1042E0000020FEF74DFB9320FEF74AFB0020FEF76F
:1042F00047FBA220FEF744FB0020FEF741FBB32062
:10430000FEF73EFB0020FEF73BFBBE20FEF738FB2E
:104310000020FEF735FBC420FEF732FB0020FEF73D
:104320002FFBCD20FEF72CFB0020FEF729FBD3202E
:10433000FEF726FB0020FEF723FBDD20FEF720FB27
:104340000020FEF71DFBF320FEF71AFB0020FEF70E
:1043500017FBE520FEF700FB0020FEF711FB002015
:10436000FEF70EFB0020FEF70BFB0020FEF708FB1C
:104370000220FEF705FB0020FEF702FB2920FEF7D6
:10438000FFFA0020FEF7FCFA3C20FEF7F9FA0020C5
:10439000FEF7F6FA4B20FEF7F3FA0020FEF7F0FAEC
:1043A0005D20FEF7EDFA0020FEF7EAFA7420FEF732
:1043B000E7FA0020FEF7E4FA8420FEF7E1FA002095
:1043C000FEF7DEFA9320FEF7DBFA0020FEF7D8FABC
:1043D000A220FEF7D5FA0020FEF7D2FAB320FEF7AE
:1043E000CFFA0020FEF7CCFABE20FEF7C9FA002073
:1043F000FEF7C6FAC420FEF7C3FA0020FEF7C0FAA3
:10440000CD20FEF7BDFA0020FEF7BAFAD320FEF762
:10441000B7FA0020FEF7B4FADC20FEF7B1FA00206C
:10442000FEF7AEFAF320FEF7ABFA0020FEF7A8FA8B
:10443000E620FEF791FA1120FEF7A2FA0020FEF71F
:104440009FFA3420FEF79CFA0020FEF799FA5620D6
:10445000FEF796FA0020FEF793FA7620FEF790FA20
:104460000020FEF78DFA7720FEF78AFA0020FEF78B
:1044700087FA6620FEF784FA0020FEF781FA88208A
:10448000FEF77EFA0020FEF77BFA9920FEF778FA15
:104490000020FEF775FABB20FEF772FA0020FEF747
:1044A0006FFA9920FEF76CFA0020FEF769FA662091
:1044B000FEF766FA0020FEF763FA5520FEF760FA71
:1044C0000020FEF75DFA5520FEF75AFA0020FEF7AD
:1044D00057FA4520FEF754FA0020FEF751FA432020
:1044E000FEF74EFA0020FEF74BFA4420FEF748FA9A
:1044F0000020FEF745FAE720FEF72EFA3220FEF7FD
:104500003FFA0020FEF73CFA5520FEF739FA00206A
:10451000FEF736FA7620FEF733FA0020FEF730FA7F
:104520006620FEF72DFA0020FEF72AFA6720FEF734
:1045300027FA0020FEF724FA6720FEF721FA002070
:10454000FEF71EFA8720FEF71BFA0020FEF718FA86
:104550009920FEF715FA0020FEF712FABB20FEF7AD
:104560000FFA0020FEF70CFA9920FEF709FA002056
:10457000FEF706FA7720FEF703FA0020FEF700FAAE
:104580004420FEF7FDF90020FEF7FAF95620FEF769
:10459000F7F90020FEF7F4F92320FEF7F1F90020E7
:1045A000FEF7EEF93320FEF7EBF90020FEF7E8F90D
:1045B0004520FEF7E5F90020FEF7E2F9E820FEF7D6
:1045C000CBF90020FEF7DCF90020FEF7D9F999209D
:1045D000FEF7D6F90020FEF7D3F98720FEF7D0F9D1
:1045E0000020FEF7CDF98820FEF7CAF90020FEF77B
:1045F000C7F97720FEF7C4F90020FEF7C1F966205D
:10460000FEF7BEF90020FEF7BBF98820FEF7B8F9E7
:104610000020FEF7B5F9AA20FEF7B2F90020FEF758
:10462000AFF9BB20FEF7ACF90020FEF7A9F99920FD
:10463000FEF7A6F90020FEF7A3F96620FEF7A0F921
:104640000020FEF79DF95520FEF79AF90020FEF7AD
:1046500097F95520FEF794F90020FEF791F94420D0
:10466000FEF78EF90020FEF78BF94420FEF788F95B
:104670000020FEF785F95520FEF782F90020FEF7AD
:104680007FF9E920FEF768F9AA20FEF779F9002002
:10469000FEF776F90020FEF773F90020FEF770F9B7
:1046A0000020FEF759F9AA20FEF76AF9CF20FEF79D
:1046B00053F90020FEF764F90020FEF761F90020AD
:1046C000FEF75EF90020FEF75BF90020FEF758F9CF
:1046D0000020FEF755F90020FEF752F90020FEF702
:1046E0004FF90020FEF74CF90020FEF749F90020B1
:1046F000FEF746F90020FEF743F90020FEF740F9E7
:104700000020FEF73DF90020FEF73AF90020FEF701
:1047100037F90020FEF734F9F020FEF71DF90020EC
:10472000FEF72EF95020FEF72BF90020FEF728F9AE
:104730000020FEF725F90020FEF722F9F320FEF70E
:104740000BF90020FEF71CF9F920FEF705F9062009
:10475000FEF716F91020FEF713F92920FEF710F9DD
:104760000020FEF70DF93A20FEF7F6F85520FEF787
:1047700007F91120FEF7F0F86420FDF76FFA292001
:10478000FEF7EAF83520FEF7E7F80020FEF7F8F824
:104790005120FEF7E1F8FF20FEF7F2F85320FEF774
:1047A000DBF82C20FEF7ECF85520FEF7D5F8822038
:1047B000FEF7E6F82C20FEF7CFF801F046B8044BE0
:1047C0009B8845F21052934240F0818702E000BF7F
:1047D0001401002055214FF47040FEF7F7F8AA218C
:1047E0004FF20100FEF7F2F852214FF20200FEF7FD
:1047F000EDF808214FF20300FEF7E8F801214FF22F
:104800000400FEF7E3F80D214FF43040FEF7DEF828
:104810000D214BF20100FEF7D9F80D214BF20200F9
:10482000FEF7D4F834214FF43640FEF7CFF83421A8
:104830004BF20160FEF7CAF834214BF20260FEF73A
:10484000C5F80D214FF43140FEF7C0F80D214BF2B1
:104850000110FEF7BBF80D214BF20210FEF7B6F87F
:1048600034214FF43740FEF7B1F834214BF2017098
:10487000FEF7ACF834214BF20270FEF7A7F80021E6
:104880004FF43240FEF7A2F800214BF20120FEF770
:104890009DF800214BF20220FEF798F824214FF4F6
:1048A0003840FEF793F824214BF60100FEF78EF80E
:1048B00024214BF60200FEF789F801214FF43F4016
:1048C000FEF784F80F214FF43340FEF77FF80F21F5
:1048D0004BF20130FEF77AF80F214BF20230FEF76F
:1048E00075F834214FF43940FEF770F834214BF657
:1048F0000110FEF76BF834214BF60210FEF766F854
:1049000008214FF43540FEF761F808214BF20150C1
:10491000FEF75CF808214BF20250FEF757F803212E
:104920004FF44240FEF752F824214FF43A40FEF78C
:104930004DF824214BF60120FEF748F824214BF6D0
:104940000220FEF743F800214FF43C40FEF73EF80A
:1049500078214BF60140FEF739F800214BF6024072
:10496000FEF734F800214FF43D40FEF72FF8782190
:104970004BF60150FEF72AF800214BF60250FEF7E5
:1049800025F800214FF43E40FEF720F864214BF655
:104990000160FEF71BF800214FF45140FEF716F8B6
:1049A00033214DF20110FEF711F800214DF20210F3
:1049B000FEF70CF834214DF20310FEF707F8002142
:1049C0004DF20410FEF702F83A214DF20510FDF702
:1049D000FDFF00214DF20610FDF7F8FF4A214DF2D0
:1049E0000710FDF7F3FF00214DF20810FDF7EEFF71
:1049F0005C214DF20910FDF7E9FF00214DF20A108C
:104A0000FDF7E4FF81214DF20B10FDF7DFFF0021E0
:104A10004DF20C10FDF7DAFFA6214DF20D10FDF757
:104A2000D5FF00214DF20E10FDF7D0FFE5214DF22C
:104A30000F10FDF7CBFF01214DF21010FDF7C6FF5F
:104A400013214DF21110FDF7C1FF01214DF212109B
:104A5000FDF7BCFF54214DF21310FDF7B7FF012104
:104A60004DF21410FDF7B2FF82214DF21510FDF743
:104A7000ADFF01214DF21610FDF7A8FFCA214DF23E
:104A80001710FDF7A3FF02214DF21810FDF79EFF4E
:104A900000214DF21910FDF799FF02214DF21A1075
:104AA000FDF794FF01214DF21B10FDF78FFF02214E
:104AB0004DF21C10FDF78AFF34214DF21D10FDF759
:104AC00085FF02214DF21E10FDF780FF67214DF298
:104AD0001F10FDF77BFF02214DF22010FDF776FF3E
:104AE00084214DF22110FDF771FF02214DF22210B9
:104AF000FDF76CFFA4214DF22310FDF767FF0221A3
:104B00004DF22410FDF762FFB7214DF22510FDF79D
:104B10005DFF02214DF22610FDF758FFCF214DF227
:104B20002710FDF753FF02214DF22810FDF74EFF2D
:104B3000DE214DF22910FDF749FF02214DF22A1026
:104B4000FDF744FFF2214DF22B10FDF73FFF02214C
:104B50004DF22C10FDF73AFFFE214DF22D10FDF71E
:104B600035FF03214DF22E10FDF730FF10214DF2DD
:104B70002F10FDF72BFF03214DF23010FDF726FF1C
:104B800033214DF23110FDF721FF03214DF2321098
:104B9000FDF71CFF6D214DF23310FDF717FF0021CB
:104BA0004FF45240FDF712FF33214DF20120FDF783
:104BB0000DFF00214DF20220FDF708FF34214DF2D8
:104BC0000320FDF703FF00214DF20420FDF7FEFE58
:104BD0003A214DF20520FDF7F9FE00214DF20620A5
:104BE000FDF7F4FE4A214DF20720FDF7EFFE00210C
:104BF0004DF20820FDF7EAFE5C214DF20920FDF799
:104C0000E5FE00214DF20A20FDF7E0FE81214DF284
:104C10000B20FDF7DBFE00214DF20C20FDF7D6FE48
:104C2000A6214DF20D20FDF7D1FE00214DF20E2000
:104C3000FDF7CCFEE5214DF20F20FDF7C7FE012167
:104C40004DF21020FDF7C2FE13214DF21120FDF7A9
:104C5000BDFE01214DF21220FDF7B8FE54214DF2A8
:104C60001320FDF7B3FE01214DF21420FDF7AEFE37
:104C700082214DF21520FDF7A9FE01214DF21620EB
:104C8000FDF7A4FECA214DF21720FDF79FFE022179
:104C90004DF21820FDF79AFE00214DF21920FDF784
:104CA00095FE02214DF21A20FDF790FE01214DF2F2
:104CB0001B20FDF78BFE02214DF21C20FDF786FE26
:104CC00034214DF21D20FDF781FE02214DF21E2000
:104CD000FDF77CFE67214DF21F20FDF777FE0221D4
:104CE0004DF22020FDF772FE84214DF22120FDF7C8
:104CF0006DFE02214DF22220FDF768FEA4214DF247
:104D00002320FDF763FE02214DF22420FDF75EFE15
:104D1000B7214DF22520FDF759FE02214DF2262044
:104D2000FDF754FECF214DF22720FDF74FFE022163
:104D30004DF22820FDF74AFEDE214DF22920FDF735
:104D400045FE02214DF22A20FDF740FEF2214DF2F0
:104D50002B20FDF73BFE02214DF22C20FDF736FE05
:104D6000FE214DF22D20FDF731FE03214DF22E20C4
:104D7000FDF72CFE10214DF22F20FDF727FE032119
:104D80004DF23020FDF722FE33214DF23120FDF7A8
:104D90001DFE03214DF23220FDF718FE6D214DF26C
:104DA0003320FDF713FE00214FF45340FDF70EFEB4
:104DB00033214DF20130FDF709FE00214DF20230A2
:104DC000FDF704FE34214DF20330FDF7FFFD002115
:104DD0004DF20430FDF7FAFD3A214DF20530FDF7B2
:104DE000F5FD00214DF20630FDF7F0FD4A214DF2B0
:104DF0000730FDF7EBFD00214DF20830FDF7E6FD31
:104E00005C214DF20930FDF7E1FD00214DF20A3041
:104E1000FDF7DCFD81214DF20B30FDF7D7FD0021C0
:104E20004DF20C30FDF7D2FDA6214DF20D30FDF70D
:104E3000CDFD00214DF20E30FDF7C8FDE5214DF20C
:104E40000F30FDF7C3FD01214DF21030FDF7BEFD1F
:104E500013214DF21130FDF7B9FD01214DF2123051
:104E6000FDF7B4FD54214DF21330FDF7AFFD0121E4
:104E70004DF21430FDF7AAFD82214DF21530FDF7F9
:104E8000A5FD01214DF21630FDF7A0FDCA214DF21E
:104E90001730FDF79BFD02214DF21830FDF796FD0E
:104EA00000214DF21930FDF791FD02214DF21A302B
:104EB000FDF78CFD01214DF21B30FDF787FD02212E
:104EC0004DF21C30FDF782FD34214DF21D30FDF70F
:104ED0007DFD02214DF21E30FDF778FD67214DF278
:104EE0001F30FDF773FD02214DF22030FDF76EFDFE
:104EF00084214DF22130FDF769FD02214DF222306F
:104F0000FDF764FDA4214DF22330FDF75FFD022182
:104F10004DF22430FDF75AFDB7214DF22530FDF753
:104F200055FD02214DF22630FDF750FDCF214DF207
:104F30002730FDF74BFD02214DF22830FDF746FDED
:104F4000DE214DF22930FDF741FD02214DF22A30DC
:104F5000FDF73CFDF2214DF22B30FDF737FD02212C
:104F60004DF22C30FDF732FDFE214DF22D30FDF7D4
:104F70002DFD03214DF22E30FDF728FD10214DF2BD
:104F80002F30FDF723FD03214DF23030FDF71EFDDC
:104F900033214DF23130FDF719FD03214DF232304E
:104FA000FDF714FD6D214DF23330FDF70FFD0021AB
:104FB0004FF45440FDF70AFD33214DF20140FDF757
:104FC00005FD00214DF20240FDF700FD34214DF2B8
:104FD0000340FDF7FBFC00214DF20440FDF7F6FC19
:104FE0003A214DF20540FDF7F1FC00214DF206405B
:104FF000FDF7ECFC4A214DF20740FDF7E7FC0021EC
:105000004DF20840FDF7E2FC5C214DF20940FDF74E
:10501000DDFC00214DF20A40FDF7D8FC81214DF264
:105020000B40FDF7D3FC00214DF20C40FDF7CEFC08
:10503000A6214DF20D40FDF7C9FC00214DF20E40B6
:10504000FDF7C4FCE5214DF20F40FDF7BFFC012147
:105050004DF21040FDF7BAFC13214DF21140FDF75F
:10506000B5FC01214DF21240FDF7B0FC54214DF288
:105070001340FDF7ABFC01214DF21440FDF7A6FCF7
:1050800082214DF21540FDF7A1FC01214DF21640A1
:10509000FDF79CFCCA214DF21740FDF797FC022159
:1050A0004DF21840FDF792FC00214DF21940FDF73A
:1050B0008DFC02214DF21A40FDF788FC01214DF2D2
:1050C0001B40FDF783FC02214DF21C40FDF77EFCE6
:1050D00034214DF21D40FDF779FC02214DF21E40B6
:1050E000FDF774FC67214DF21F40FDF76FFC0221B4
:1050F0004DF22040FDF76AFC84214DF22140FDF77E
:1051000065FC02214DF22240FDF760FCA4214DF226
:105110002340FDF75BFC02214DF22440FDF756FCD5
:10512000B7214DF22540FDF751FC02214DF22640FA
:10513000FDF74CFCCF214DF22740FDF747FC022143
:105140004DF22840FDF742FCDE214DF22940FDF7EB
:105150003DFC02214DF22A40FDF738FCF2214DF2D0
:105160002B40FDF733FC02214DF22C40FDF72EFCC5
:10517000FE214DF22D40FDF729FC03214DF22E407A
:10518000FDF724FC10214DF22F40FDF71FFC0321F9
:105190004DF23040FDF71AFC33214DF23140FDF75E
:1051A00015FC03214DF23240FDF710FC6D214DF24C
:1051B0003340FDF70BFC00214FF45540FDF706FC92
:1051C00033214DF20150FDF701FC00214DF2025058
:1051D000FDF7FCFB34214DF20350FDF7F7FB0021F6
:1051E0004DF20450FDF7F2FB3A214DF20550FDF768
:1051F000EDFB00214DF20650FDF7E8FB4A214DF290
:105200000750FDF7E3FB00214DF20850FDF7DEFBF0
:105210005C214DF20950FDF7D9FB00214DF20A50F7
:10522000FDF7D4FB81214DF20B50FDF7CFFB0021A0
:105230004DF20C50FDF7CAFBA6214DF20D50FDF7C3
:10524000C5FB00214DF20E50FDF7C0FBE5214DF2EC
:105250000F50FDF7BBFB01214DF21050FDF7B6FBDF
:1052600013214DF21150FDF7B1FB01214DF2125007
:10527000FDF7ACFB54214DF21350FDF7A7FB0121C4
:105280004DF21450FDF7A2FB82214DF21550FDF7AF
:105290009DFB01214DF21650FDF798FBCA214DF2FE
:1052A0001750FDF793FB02214DF21850FDF78EFBCE
:1052B00000214DF21950FDF789FB02214DF21A50E1
:1052C000FDF784FB01214DF21B50FDF77FFB02210E
:1052D0004DF21C50FDF77AFB34214DF21D50FDF7C5
:1052E00075FB02214DF21E50FDF770FB67214DF258
:1052F0001F50FDF76BFB02214DF22050FDF766FBBE
:1053000084214DF22150FDF761FB02214DF2225024
:10531000FDF75CFBA4214DF22350FDF757FB022162
:105320004DF22450FDF752FBB7214DF22550FDF709
:105330004DFB02214DF22650FDF748FBCF214DF2E7
:105340002750FDF743FB02214DF22850FDF73EFBAD
:10535000DE214DF22950FDF739FB02214DF22A5092
:10536000FDF734FBF2214DF22B50FDF72FFB02210C
:105370004DF22C50FDF72AFBFE214DF22D50FDF78A
:1053800025FB03214DF22E50FDF720FB10214DF29D
:105390002F50FDF71BFB03214DF23050FDF716FB9C
:1053A00033214DF23150FDF711FB03214DF2325004
:1053B000FDF70CFB6D214DF23350FDF707FB00218B
:1053C0004FF45640FDF702FB33214DF20160FDF72B
:1053D000FDFA00214DF20260FDF7F8FA34214DF29A
:1053E0000360FDF7F3FA00214DF20460FDF7EEFAD9
:1053F0003A214DF20560FDF7E9FA00214DF2066011
:10540000FDF7E4FA4A214DF20760FDF7DFFA0021CB
:105410004DF20860FDF7DAFA5C214DF20960FDF704
:10542000D5FA00214DF20A60FDF7D0FA81214DF244
:105430000B60FDF7CBFA00214DF20C60FDF7C6FAC8
:10544000A6214DF20D60FDF7C1FA00214DF20E606C
:10545000FDF7BCFAE5214DF20F60FDF7B7FA012127
:105460004DF21060FDF7B2FA13214DF21160FDF715
:10547000ADFA01214DF21260FDF7A8FA54214DF268
:105480001360FDF7A3FA01214DF21460FDF79EFAB7
:1054900082214DF21560FDF799FA01214DF2166057
:1054A000FDF794FACA214DF21760FDF78FFA022139
:1054B0004DF21860FDF78AFA00214DF21960FDF7F0
:1054C00085FA02214DF21A60FDF780FA01214DF2B2
:1054D0001B60FDF77BFA02214DF21C60FDF776FAA6
:1054E00034214DF21D60FDF771FA02214DF21E606C
:1054F000FDF76CFA67214DF21F60FDF767FA022194
:105500004DF22060FDF762FA84214DF22160FDF733
:105510005DFA02214DF22260FDF758FAA4214DF206
:105520002360FDF753FA02214DF22460FDF74EFA95
:10553000B7214DF22560FDF749FA02214DF22660B0
:10554000FDF744FACF214DF22760FDF73FFA022123
:105550004DF22860FDF73AFADE214DF22960FDF7A1
:1055600035FA02214DF22A60FDF730FAF2214DF2B0
:105570002B60FDF72BFA02214DF22C60FDF726FA85
:10558000FE214DF22D60FDF721FA03214DF22E6030
:10559000FDF71CFA10214DF22F60FDF717FA0321D9
:1055A0004DF23060FDF712FA33214DF23160FDF714
:1055B0000DFA03214DF23260FDF708FA6D214DF22C
:1055C0003360FDF703FA55214FF47040FDF7FEF903
:1055D000AA214FF20100FDF7F9F952214FF2020022
:1055E000FDF7F4F908214FF20300FDF7EFF9002170
:1055F0004FF20400FDF7EAF9CC214FF43140FDF7FA
:10560000E5F900214BF20110FDF7E0F905214FF417
:105610003640FDF7DBF970214FF43740FDF7D6F93E
:1056200070214BF20170FDF7D1F901214FF43840A0
:10563000FDF7CCF903214BF60100FDF7C7F9032173
:105640004BF60200FDF7C2F903214BF60300FDF70C
:10565000BDF902214FF43C40FDF7B8F900214BF6AB
:105660000140FDF7B3F900214BF60240FDF7AEF91A
:10567000D0214FF44940FDF7A9F902214CF6011061
:10568000FDF7A4F950214CF60210FDF79FF95021C7
:105690004CF60310FDF79AF950214CF60410FDF773
:1056A00095F900214FF45450FDF790F955214FF42E
:1056B0006850FDF78BF94FF48850FDF74DF97820CD
:1056C000FDF7D4F84FF42450FDF746F9BDE0644BE4
:1056D0009B8841F66312934240F0B780E220FDF7C9
:1056E0003BF91D20FDF74CF90220FDF749F9042094
:1056F000FDF746F96420FDF7B9F8E020FDF72CF935
:105700000120FDF73DF90A20FCF7A8FAE020FDF79B
:1057100023F90320FDF734F90C20FCF79FFA012050
:10572000FDF71AF90A20FCF799FAE620FDF714F9BB
:105730002F20FDF725F9FF20FDF722F9FF20FDF7C7
:105740001FF9B020FDF708F92020FDF719F9002016
:10575000FDF716F90120FDF713F940F23F10FDF7B0
:105760000FF90020FDF70CF9EF20FDF709F90020F3
:10577000FDF706F9B420FDF7EFF80220FDF700F978
:1057800040F23F20FDF7FCF80020FDF7F9F82E204D
:10579000FDF7F6F80020FDF7F3F80020FDF7F0F82C
:1057A0000020FDF7EDF80020FDF7EAF8B620FDF740
:1057B000D3F80120FDF7E4F84FF48E70FDF7E0F820
:1057C0000020FDF7DDF81720FDF7DAF81520FDF7CA
:1057D000D7F80020FDF7D4F80020FDF7D1F8F0202D
:1057E000FDF7BAF80320FDF7CBF82920FDF7B4F850
:1057F000D020FDF7B1F80020FDF7C2F8BE20FDF77C
:10580000ABF80520FDF7BCF8FE20FDF7B9F8012044
:10581000FDF7B6F80020FDF7B3F80020FDF7B0F86B
:105820000020FDF7ADF8B820FDF796F80320FDF74E
:10583000A7F80120FDF7A4F8BA20FDF78DF80120A4
:10584000FDF79EF86420FDF7F7FB0120FDF728FC2B
:10585000FDF74EF84FF6FF7000F004F800BF80BD72
:105860001401002080B584B000AF0346FB80002304
:10587000FB60114B1B88BB600F4B5B881A46BB68F3
:1058800002FB03F3BB6000210020FDF7C5F8FDF724
:10589000B3F80023FB6005E0084AFB885380FB68EF
:1058A0000133FB60FA68BB689A42F5D300BF00BFC2
:1058B0001037BD4680BD00BF140100207E00006C83
:1058C00090B585B000AF0446084611461A462346F7
:1058D000FB800346BB800B467B8013463B80002346
:1058E0007B817A88FB88D31A9BB201337B81BB888A
:1058F000FB8117E0FA89FB8811461846FDF78CF802
:10590000FDF77AF80023BB8105E00B4A3B8C5380FE
:10591000BB890133BB81BA897B899A42F5D3FB8964
:105920000133FB81FA893B889A42E3D900BF00BF6B
:105930001437BD4690BD00BF7E00006C90B585B0A9
:1059400000AF0446084611461A462346FB8003462C
:10595000BB800B46FB701346BB70BB887B81BB785A
:10596000DB08DBB21A46BB7803F00703DBB2002B7F
:1059700014BF01230023DBB21344DAB2BB785B0807
:10598000DBB212FB03F37B72FB78203BFB7000233E
:105990007B7369E0BB780C2B0BD1FA78797B3848A4
:1059A00013465B0013449B0003440B441B78FB73BA
:1059B00019E0BB78102B08D1FA787B7B31491201B2
:1059C0000A4413441B78FB730DE0BB78182B50D1AD
:1059D000FA78797B2C481346DB0013449B00034480
:1059E0000B441B78FB730023BB7335E097F90F3032
:1059F000002B07DA254B1A88B988FB881846FDF773
:105A00005DFA0AE097F82030002B06D1204B1A8867
:105A1000B988FB881846FDF751FAFB7B5B00FB73E6
:105A2000BB880133BB801B4B5B88BA889A4222D269
:105A3000BA887B89D21ABB789A420AD17B89BB800B
:105A4000FB880133FB80134B1B88FA889A4207D3EB
:105A500012E0BB7B0133BB73BB7B072BC6D900E0D5
:105A600000BF7B7B01337B737A7B7B7A9A4291D335
:105A700002E000BF00E000BF1437BD4690BD00BF8C
:105A8000406B0008B46F0008A475000810010020E6
:105A9000240000201401002080B485B000AF03462C
:105AA0000A46FB711346BB710123FB6004E0FA79DF
:105AB000FB6802FB03F3FB60BB795A1EBA71002B33
:105AC000F5D1FB6818461437BD465DF8047B704776
:105AD00090B589B002AFBA601A460346FB810B4607
